:020000041000EA
:1000000000B5324B212058609868022188439860DF
:10001000D860186158612E4B002199600221596106
:100020000121F02299502B49196001219960352056
:1000300000F044F80222904214D00621196600F024
:1000400034F8196E01211966002018661A6600F04E
:100050002CF8196E196E196E052000F02FF8012189
:100060000842F9D1002199601B49196000215960AB
:100070001A491B48016001219960EB211966A021F2
:10008000196600F012F800219960164914480160C1
:100090000121996001BC002800D000471248134993
:1000A000086003C880F30888084703B5996A0420EC
:1000B0000142FBD001200142F8D103BD02B5186610
:1000C0001866FFF7F2FF186E186E02BD00000240BE
:1000D000000000180000070000035F00212200005C
:1000E000F4000018222000A00001001008ED00E03C
:1000F00000000000000000000000000074B24E7A12
:1001000000200420F7010010C3010010C5010010F9
:10011000C1010010C1010010C1010010C101001097
:10012000C1010010C1010010C1010010C701001081
:10013000C1010010C1010010C9010010CB01001065
:10014000CD010010CD010010CD010010CD01001037
:10015000CD010010CD010010CD010010CD01001027
:10016000CD010010CD010010CD010010CD01001017
:10017000CD010010CD010010CD010010CD01001007
:10018000CD010010CD010010CD010010CD010010F7
:10019000CD010010CD010010CD010010CD010010E7
:1001A000CD010010CD010010CD010010CD010010D7
:1001B000CD010010CD010010CD010010CD010010C7
:1001C00000BE00BE00BE00BE00BE00BE00F04BF888
:1001D000103800BEF2EB8871047C0510287C0510F5
:1001E0003402001090A31AE700202149086006C8D5
:1001F00081F3088810471F48006800282FD10DA4FC
:100200000ECC002902D000F012F8F9E71A491B4A77
:10021000002000E001C19142FCD1194988471949E9
:1002200088471949884700BEFDE701C901C29A42C3
:10023000FBD37047287C0510C0000020F81E00206A
:10024000609A05100000042000000420609A051048
:1002500000100420001004200000000070470B482C
:1002600008F038FD0047EFF30580C0B2704700008A
:1002700008ED00E0000000D0F81E0020DC36002071
:10028000ED6D001065500010156F001057560000FE
:1002900006005250ABB3605310D204100600525007
:1002A000861C030220D20410060052505422A29D44
:1002B00030D2041005005250DE65F468609A0510D3
:1002C000F8B5C0460448054B10B5834203D0044B33
:1002D000002B00D0984710BDF81E0020F81E00200B
:1002E0000000000006480749091A8B10C90FC918F9
:1002F00010B5491003D0044B002B00D0984710BD17
:10030000F81E0020F81E00200000000010B5074C69
:100310002378002B09D1FFF7D5FF054B002B02D026
:10032000044800E000BF0123237010BD68230020B3
:100330000000000040C20410054B10B5002B03D094
:100340000449054800E000BFFFF7CCFF10BDC046E0
:10035000000000006C23002040C204100800704719
:100360007047C0467047C046030010B5DB680C30CC
:100370009B68984710BDC046074B0C3010B5040071
:10038000994206D008002BF00DFB431E98414042D5
:100390000440200010BDC04610CF0410406810B5C6
:1003A000054B44681B1B9A4202D82CF03BFB10BD46
:1003B000024821F0DBF9C046FFFFFF3F40C20410B6
:1003C00010B50400142109F087FD200010BDC046BF
:1003D00010B50400082109F07FFD200010BDC046C3
:1003E00010B5142109F078FD10BDC046F0B5446881
:1003F0000E00220067682368083283B07D1C934298
:1004000013D0A268954206D80022DE5523686560A5
:100410005A5503B0F0BD0123002200933900002398
:1004200020002CF00FF92368EEE70F22EAE7C04620
:10043000F0B557464E46DE464546E0B50026002755
:100440000B7804008660C76085B00370082B07D85E
:10045000CF4A9B00D3589F468A68CB688260C360AE
:10046000200005B0F0BCBB46B246A946A046F0BD90
:100470008F68202009F020FD79683A6805008B1A02
:1004800098460023036043608360914200D175E188
:100490004346002B00DA8BE1404609F00DFD0600D3
:1004A0004346F018A86000202E606E6039687B68B3
:1004B00080465A1A8B4200D04DE13A697B692A6125
:1004C0006B6146446E603B7E2B76A560C8E78A6808
:1004D000CB688260C360C3E718208E6809F0ECFC2B
:1004E0000023011D836005000371C1600161436148
:1004F000B0680028E9D000F05DF903001A009B689D
:10050000002BFBD10300EA601A00DB68002BFBD153
:1005100073692A616B61A860A560A1E70C208F68F0
:1005200009F0CAFC002379683A6881468E1A036094
:1005300043608360914200D11DE1964B9E4200D9F9
:1005400036E1300009F0B8FC05004B46AE191D60DD
:100550005D609E607B683E6801939E4216D0A24615
:10056000002100223378A960EA602B70082B07D89D
:10057000894A9B00D3589F46B368F468AB60EC602F
:10058000019B10361035B342EAD154464B465D60AC
:10059000A36065E718208E6809F08EFC050008301E
:1005A000286037687668002F00D1D9E003960F2EB7
:1005B00000D9B2E0012E00D0F2E03B782B7200238C
:1005C0006E608355A5604BE70B7A037248E71820ED
:1005D000B76809F071FC0023011D836004000371FA
:1005E000C16001614361B868002810D000F0E2F8F2
:1005F00003001A009B68002BFBD10300E2601A0085
:10060000DB68002BFBD17B6922616361A060AC6079
:10061000B6E7B368F468AB60EC60B1E7B36820207C
:10062000984609F049FC43465A681B680700D11AEE
:100630008B4600210160416081609A4200D1A2E0B6
:100640005B46002B00DAB3E0584609F035FC0400A5
:100650005B46E318BB60002043463C607C600ACBED
:1006600083465A1A8B4200D080E043465C447C604B
:100670005C691B693B617C6143461B7EAF603B76D6
:100680007EE7337A2B727BE71820B76809F014FCF9
:100690000400083020603B687F689846002B6FD0CC
:1006A00003970F2F48D8012F00D07DE01B782372CD
:1006B00000236760C355AC6062E7B3680C209B46BB
:1006C00009F0FAFB5B4600215A681B688046D71A7E
:1006D0000160416081609A4257D02E4B9F4267D89B
:1006E000380009F0E9FB04004346E7191C605C6030
:1006F0009F605B461F685B689F420AD0AB461D0047
:10070000390020001037FFF793FE1034BD42F7D1B7
:100710005D4643465C60AB6032E70022280003A9D7
:100720002BF04EFF039B2860AB603200390009F0CC
:10073000BDFB039E286842E70022200003A92BF09E
:100740003FFF039B2060A3603A00414609F0AEFBE7
:10075000039F2068ACE7300090464BF061FDACE6AB
:10076000002E00D12BE70D4820F0E8FF2000934633
:100770004BF056FD79E700260025E6E600268FE6D9
:10078000002F95D0EFE7002462E700270024ABE7B5
:1007900084C20410F0FFFF7FA8C2041058C20410E6
:1007A000002E00D10BE7C0E7002F00D180E7CBE798
:1007B00020F0A4FFF0B54546DE4657464E46E0B56C
:1007C000040083B038200F0009F076FB0600030018
:1007D000226918309046656910333061002A00D1D3
:1007E00061E101950F2D14D8012D00D05DE2137841
:1007F0003376002328227561002143550020A35C35
:10080000B35430637163082B16D8D14A9B00D35878
:100810009F461800002201A92BF0D2FE019B3061F7
:10082000B3612A00414609F041FB019D3069E0E7D0
:10083000226B636B326373632378E0683370002349
:100840007760B360F360002803D03100FFF7B2FF98
:10085000F060A568002D00D108E1B046382009F00D
:100860002BFB04000300183020612A696F69914650
:100870001033002A00D110E101970F2F00D9FDE0BD
:10088000012F00D0ECE11378237600232822676142
:10089000C355AB5C0021A354002221636263082B83
:1008A00007D8AC4A9B00D3589F462A6B6B6B2263D8
:1008B00063632B7823700023A360E360B4606660F9
:1008C000E868002800D1CCE02100FFF773FFE0606A
:1008D000AD68002D00D1C8E02600BFE72B6B0C20CF
:1008E0009B4609F0E9FA5B4659681A68002382467C
:1008F0008F1A036043608360914200D1C1E1964B3F
:100900009F4200D9ECE1380009F0D6FA81465346FF
:100910004A464F441A605A609F605B461F685B6896
:100920009F4211D02A001D004B469346A1461C0051
:10093000390020001037FFF77BFD1034BD42F7D19E
:1009400023005D464C46994653464A4623635A6007
:10095000AFE72B6B1820994609F0AEFA002303711C
:10096000836043614B46011D0700C16001619868C7
:10097000002811D0FFF71EFF03001A009B68002B10
:10098000FBD10300FA601A00DB68002BFBD14B4659
:100990005B693A617B61B86027638AE72B00283383
:1009A0001A7A3023E25484E72B6B1820994609F019
:1009B00083FA07004B46083038601B689A464B465E
:1009C0005B6899465346002B00D152E14B46019398
:1009D0000F2B6CD8012B00D07BE153461B783B7268
:1009E0004B464A467B6000238354276361E72A6BAA
:1009F0006B6B226363635CE72B6B20209A4609F0E4
:100A00005BFA534659681A6807008B1A9B46002305
:100A1000036043608360914200D12FE15B46002B6D
:100A200000DA5DE1584609F047FA814658464B46E0
:100A300048443B607B60B860534600200ACB834645
:100A40005A1A8B4200D00FE1534648461A695B6937
:100A50003A617B615346584478601B7E3B7627633E
:100A600027E7AD68002D00D036E74646300003B0DA
:100A7000F0BCBB46B246A946A046F0BD1800002215
:100A800001A92BF09DFD019B2061A3613A0049461D
:100A900009F00CFA019F2069F7E6002F00D1F4E677
:100AA0002E4820F04BFE002D00D1A2E6F8E70022F0
:100AB000380001A92BF084FD019B3860BB604A46D9
:100AC000514609F0F3F9019B3868994688E7226B93
:100AD000636B32637363AFE6236B2020994609F0A2
:100AE000EBF94B4659681A6805008B1A9A460023A1
:100AF000036043608360914200D1E7E05346002BDE
:100B000000DAEDE0504609F0D7F9804650464346FA
:100B100040442B606B60A8604B4600200ACB8246A5
:100B20005A1A8B4200D0C4E04B4640461A695B69B2
:100B30002A616B614B46504468601B7E2B7635639F
:100B40007AE6230028331A7A3023F25474E6C0463A
:100B5000CCC20410F0C20410F0FFFF7F58C2041092
:100B6000236B0C209A4609F0A7F9534659681A6876
:100B7000002381468D1A036043608360914200D157
:100B8000A0E0584B9D4200D9AAE0280009F094F952
:100B900080464B46424645441A605A609D60534623
:100BA0001D685B689A469D420FD023004446B046BC
:100BB00056469A46290020001035FFF739FC1034BC
:100BC000AE42F7D14646A04654464B4642463363B2
:100BD0005A6031E6236B1820984609F06DF900231E
:100BE0000371836043614346011D0500C1600161DB
:100BF00098680028A3D0FFF7DDFD03001A009B686A
:100C0000002BFBD10300EA601A00DB68002BFBD14C
:100C100043465B692A616B61A86035630CE6236B10
:100C20001820984609F048F9050043460830286026
:100C30001B68994643465B6898464B46002B3DD05F
:100C4000434601930F2B20D8012B46D14B461B78EE
:100C50002B72434642466B60002383543563EBE5B9
:100C6000002F00D111E611E7484693464BF0D8FA21
:100C7000EAE64B46002B00D1B2E611E70023994685
:100C8000D4E600230027994641E60022280001A966
:100C90002BF096FC019B2860AB604246494609F068
:100CA00005F9019B28689846D3E7002D00D1A0E5FF
:100CB000B7E5404692464BF0B3FA35E74346002B82
:100CC000C7D0EDE600230025984662E7002398464A
:100CD0001CE7002B00D183E6F1E6002BB9D0DCE75E
:100CE00020F00CFDF0FFFF7FF8B5CE46474680238D
:100CF00004000D0080B51B05994236D2A368006838
:100D0000191A0B119D4203D8C0BCB946B046F8BDB4
:100D100063689C461B1A9846002D23D02D0128009D
:100D200009F0CAF8636881469C462068A368191ACE
:100D30004A460300604509D01E7816709E68DF6839
:100D400010339660D76010326345F5D1002801D08A
:100D500009F0C2F84B46236043464D444B44636060
:100D6000A560D1E700239946E2E7014820F0FEFCA8
:100D700014C30410F0B5DE4657464E464546E0B56E
:100D8000B9B003924A6883468A46002A44D00023B9
:100D90009C46B84B002400250026002100279946D8
:100DA000904653464A461B689B5DD05C002C3AD067
:100DB0003F22103424014C44245C1A40AD011543F9
:100DC000002C39D0012C46D0039A002A07D15A466C
:100DD000D0194E22835453465B680137984601313F
:100DE00001364645DDD3002C00D053E1002F13D04F
:100DF0005B4659461868A04A03684E315B689342C7
:100E000000D0CFE140689D4B42689B1A9F4200D9B9
:100E1000A2E23A002BF006FE39B0F0BCBB46B24667
:100E2000A946A046F0BDFF25C540103424014C441E
:100E3000245C1D40002CC5D1222D00D989E0072D4E
:100E400000D8B1E02A00083A1A2A00D9ACE08C494F
:100E500092008A5897469A22584692008258002A51
:100E600000D1FCE1531E012BBAD84B1E9941761AD2
:100E7000012A79D0674600240021B1E759464E2265
:100E80005C20C919885422217B1C5B440237995489
:100E900080239B00DB1B0C2B14D953465B68BC469C
:100EA000984600219CE759464E225C20C919885477
:100EB00072217B1C5B449954802302379B00DB1B0F
:100EC0000C2BEAD85B46594618686B4A03684E31CA
:100ED0005B68934265D14068684B42689B1A9F42A9
:100EE00000D939E23A002BF09DFD53465B680021A2
:100EF0009846002300279C4672E759464E225C2004
:100F0000C919885466217B1C5B4402379954BFE79A
:100F100059464E225C20C91988546E217B1C5B44C3
:100F200002379954B4E759464E225C20C9198854B7
:100F300074217B1C5B4402379954A9E759464E2221
:100F40005C20C919885462217B1C5B440237995488
:100F50009EE75C2D6AD159464E227B1CC9195B4421
:100F60008D5402379D5493E7039B002B28D15B4699
:100F70004E22EF21634499541A0030394F321170D8
:100F8000BD22503367461A70802303379B00DB1B5A
:100F90000C2B2ED953465B68BC4698460024002192
:100FA0001EE73A009847A0E71F2D3FD858464E301D
:100FB000C0192B000721334A07F01AFE063767E7EE
:100FC0005B464E225C21634499541A0019314F321A
:100FD00011701900662250310A704A708A705333BA
:100FE000023A67461A70802306379B00DB1B0C2BE6
:100FF000D0D85B46594618681F4A03684E315B6873
:10100000934200D0CBE040681C4B42689B1A9F4241
:1010100000D9A1E13A002BF005FD53465B6800249E
:101020009846002300219C460027D9E6039A002A0F
:101030001AD07E2D18D980235B029D42B6D3124A66
:1010400012499446AB0A63448C465846AA05920D51
:10105000624492B24E30C01900920D210C4A9BB2EC
:1010600007F0C6FD0C3713E75A46D1194E22013757
:101070008B540DE734C604109D030010FFFFFF3FA3
:1010800048C3041024C30410C0D7FFFF00DCFFFFD7
:101090002CC304109A235A469B00D458012C00D12B
:1010A00096E0022C00D180E0002C00D0B4E616A817
:1010B00020F03AFCB74B04ADAB64B823EC500433DA
:1010C000EC5200220023B44E34923593369237937B
:1010D000B368F268049303920C3B1A680399A95011
:1010E0006C6018680021281820F00AFC3369002180
:1010F000AB600C3B186806AB9C46736960440360A8
:10110000039320F0FDFB7368B2690C3B1B680EA8CB
:10111000EA50A24B03920493A14B2C61AB64A14B08
:101120006C61AB60A04BAC61EB60EC612C626C62FB
:1011300014F0E8FB9D4B6C63EB601823EB6212AB81
:101140002B63382307A9EC5416A820F0D9FB06AA74
:1011500094468022AB68D2010C3B1B686046634416
:10116000D9680A43DA6030212AF036FB022103688D
:101170000C3B1A68821891604A221B68C318D96810
:101180009143423A0A43DA60534652461B6852681A
:101190009B18013B19782AF001FC3EF00FFC3A0045
:1011A00098473AE73A00984736E659461068804A29
:1011B00003684E315B68934246D140687D4B42687C
:1011C0009B1A9C4500D9C7E062462BF02BFC23E616
:1011D00059461068764C03684E315B68A34230D1A3
:1011E0004068744B42689B1A9C4500D9B4E0624643
:1011F0002BF018FC039B002B11D05B46186803688A
:101200005B68A34223D140686A4B42689B1A052B56
:1012100000D8A1E0062268492BF004FCFCE55B46FF
:10122000186803685B68A34215D14068614B426847
:101230009B1A022B00D88FE0032260492BF0F2FBAF
:10124000EAE562469847D5E762469847E4E5062214
:1012500059499847E0E5032258499847DCE516A824
:101260001600984620F060FB4A4B04ACA364B823F8
:10127000E6500433E65200220023474D3492359362
:1012800036923793AB68EA68049303920C3B1A6872
:101290000399A150666018680021201820F030FBE7
:1012A0002B690021A3600C3B186806AB9C466B6958
:1012B00060440360039320F023FB6B68AA690C3B36
:1012C0001B680392E250354B0EA81A0004931433A6
:1012D000A360354B2832A264E36026616661A66193
:1012E000E6612662666214F00DFB304B0022E3607B
:1012F0001823E36212AB23633823666307A9E25421
:1013000016A820F0FDFAA36806AD0C3B1A689446B7
:1013100080226544E968D2010A43EA607522AA5C2A
:10132000002A1CD074223021A954196806AA8C46C0
:101330000221624491601A6806AB9C464A236244CB
:10134000D168604699430B0008210B43D3604146A6
:101350002AF024FB3EF032FB194820F007FAEE6F2A
:10136000002E10D0337F002B07D1300016F084FE02
:101370003368144A9B69934207D175230122EA54CA
:10138000A3680C3BCEE720F0C9F920213000984734
:10139000F3E7C0462CEA0410D0F2041004F3041062
:1013A0002CF3041018F30410C8F304100CF204100A
:1013B0009D030010FFFFFF3F3CC3041044C3041013
:1013C00040C204105D030010F0B557464E46454636
:1013D000DE46E0B503689146426885B09A460392BE
:1013E000D31A3E4A88460C0001901B11934200D14B
:1013F00071E00127002B02D05F00BB4262D8434658
:1014000052469B1A1D00002F4DD1002210239346F7
:10141000029249462A0009785A4411704946886860
:10142000C9689060D160002148464D460170002097
:101430000021A860E960C2450ED017005B46514606
:101440008D68CE6808789D60DE60187010331031AA
:101450009F42F5D1130010330399414539D04246DC
:101460008D1A5D1922781A70A168E2689960DA60B5
:10147000103310349D42F5D15346002B06D052460E
:10148000019B50469B68991A08F026FD5B46019A1D
:101490001360029B5560936005B0F0BCBB46B2463A
:1014A000A946A046F0BD80231B059F420FD23F01F5
:1014B000380008F001FD3B0083465B4402930300C3
:1014C0001033A6E752468B1A1D00054FF0E7034F75
:1014D000EDE71D00D0E7034820F048F9FFFFFF07C4
:1014E000F0FFFF7FB4C30410F0B55746DE464E460A
:1014F0004546E0B54B1E8BB082460191012B49D980
:10150000032936D016D908290DD100680368002BAD
:1015100006D081681800C91A08F0DEFC5346186826
:10152000202108F0D9FC0BB0F0BCBB46B246A9465E
:10153000A046F0BD019B022BF5D153461E683468CE
:101540007568AC4208D02000217808301034FFF7CD
:10155000CBFFA542F7D13568002D04D0B168280033
:10156000491B08F0B9FC53460C21186808F0B4FC7C
:10157000D9E70068020003680832934206D0816808
:101580001800013108F0A8FC53461868182108F02B
:10159000A3FCC8E7002300220292039300230493D4
:1015A0000368022900D1FFE0596902A8FFF79CFBFC
:1015B00053461B682827DE68043399460025039CA0
:1015C0009E4217D0049B0093A34200D1DDE0F35D5F
:1015D00030002370326B736BA260E3600022002343
:1015E000F555103432637363039415F01DF906004A
:1015F0008145E7D100239946029B00260027200061
:1016000006ADA3420AD16DE0012900D17FE008A810
:10161000FFF76AFF0298039C844263D023002000F6
:10162000103B1A7808382A7001684268A960EA609D
:101630004A4600219E60DF601A700393FFF754FF53
:1016400029780229E0D1AB681C689B465B6800934F
:101650001B1B1A119046002B14DC29E023780B7019
:10166000A268E3688A60CB604B46237001235B422B
:101670009C46E04443461031A660E7600391103475
:10168000002B10D0049B039900939942E6D12200CD
:1016900002A8FFF799FE01235B429C46E0444346C3
:1016A0001034002BEED1AB689B461C685B6800933E
:1016B000009BA0469C425AD04346404619780830C9
:1016C000FFF712FF10239C46009BE0449845F3D19E
:1016D0005B4608A85C602978FFF706FF0298039C28
:1016E00084429BD1002803D00499091A08F0F4FB26
:1016F000019B012B00D01DE753461B68986800F042
:10170000C3FC53461821186808F0E6FB0BE7AB68EA
:101710009846DC68042343449B46A3421DD02823FB
:101720009846049B03990093994222D04346E35C78
:1017300020000B70226B636B8A60CB6043464A4685
:101740001031E25426636763039115F06DF80400CD
:101750008345E6D1AB6898461C1D4346986800F067
:1017600093FC43464A46DC609A601C615A612978C2
:101770004DE7220002A82832FFF726FE200015F0D0
:1017800053F804008345CCD1E4E73200210028322D
:1017900002A8FFF719FE300015F046F8039C06007A
:1017A000484500D00EE725E759681B6802A8C91A0A
:1017B0000911FFF799FA53461B68039C1E685B6882
:1017C0009B1B1F11002B00DC14E7002511E0337870
:1017D0002370B268F368A260E36000220023B26065
:1017E000F360103435700394013F1036002F00D1A0
:1017F00000E7049B0093A342E9D12100320002A834
:10180000FFF7E2FD039CEFE7F0B5DE464E46574694
:101810004546E0B587B00190382014001D008B4686
:1018200008F04AFB1823814626004B4404930361C9
:10183000236808369A46B34200D1A8E0A268036143
:1018400082614B46676848465F61002323722A78AD
:101850006360110005922822266081542B70A968CC
:10186000EA680023016342630022AA60EB605B46E2
:101870009C6804330293002C62D023696569984602
:101880002E00BD4200D93E00002E0DD03200414650
:1018900050464AF03DFC002806D007DBE3680022F2
:1018A000002B07D01C00E8E7781BF7D5A3680122BE
:1018B000002BF7D10394002A43D1002E26D032000A
:1018C000514640464AF024FC00281FD020DB484601
:1018D00005993030FFF708FE4B461869049B834298
:1018E00004D04B469B69591C08F0F6FA484638214B
:1018F00008F0F2FA019A002310001460137107B087
:10190000F0BCBB46B246A946A046F0BDE81BDED5FA
:10191000039B0024002BDAD01C00029B9C4224D0A5
:1019200065693A00AF4200D92A00002A05D0504626
:1019300021694AF0EDFB002800D1781BC00F15E0AB
:101940001C005B46DB68A342E7D0200014F098FF40
:101950000369456998463E00AF4202D803940400EB
:10196000ABE703942E000400A7E701202200029BAE
:10197000494614F0A1FF5B465A465B690133536147
:101980004B46019A1360012310001371B7E7049FBF
:1019900010221900380008F089FABA4651E7C0460B
:1019A000F0B557464E464546DE46E0B58BB00C00D6
:1019B000029114A9097807008C46002101700021CA
:1019C00000205600B618F6000392A219B860F9601C
:1019D0000192F11072105218150152191502521984
:1019E000150455196D006D18A910032D00DC25E3B1
:1019F000182290464A0052185201A218200091461F
:101A0000A0440169002900D181E20A78022A00D1AC
:101A100067E2002B05D16346022B5DD0012B00D17C
:101A2000BCE2019B984257D1012318203B7008F07B
:101A300043FA0023037183604361019B021DC2606E
:101A40000261B86006AD9C4200D183E0B9462369CB
:101A5000002B00D128E2002000211A78A860E9605C
:101A60002A70082A00D954E2C64992008A5897463B
:101A70000269002A00D1F2E211780229C9D19268E4
:101A800006CA521A202AC4D10A78032AC1D11830B2
:101A90000269002A00D1E4E211780229B9D19268E2
:101AA00006CA521A202AB4D10A78032AB1D11830B2
:101AB0000269002A00D1D0E211780229A9D19268E6
:101AC00006CA521A202AA4D10A78032AA1D1002BCF
:101AD000AAD16346022BA7D102230C203B7008F049
:101AE000EBF900238346A846036043608360002E21
:101AF00000DABEE2002D00D124E22B011800984646
:101B000008F0DAF905005B461D6043465A46EB18BB
:101B10009360019B9C421AD0B9462369002B00D1E7
:101B2000D3E1002000211A78A860E9602A70082A11
:101B300007D8954992008A5897469A68DB68AA6048
:101B4000EB60019B18341035A342E6D14F465B464B
:101B50005D60BB6038000BB0F0BCBB46B246A94626
:101B6000A046F0BD9A68DB68AA60EB6013001E68AF
:101B700004AB37009846103749463B004046B268F0
:101B80008968FFF741FE297808A8FFF7ADFC019BA3
:101B90001834A34200D05AE74F46DBE71B7A2B727A
:101BA000AB68E4E718209F6808F086F90600083063
:101BB00030603B687F689A46002B00D1B1E1049702
:101BC0000F2F00D9C5E1012F00D03CE21B78337202
:101BD00004AB984600237760C355AE603668370083
:101BE0001037C9E79B680C209B4608F065F95B46F7
:101BF00000215A681B688246D61A016041608160E4
:101C00009A4200D196E1614B9E4200D92DE230000C
:101C100008F052F9070080461037534642464644C2
:101C20001A605A609E605A465B4656681B68B3420B
:101C300000D101E21F0023003400464698463900D7
:101C400030001037FEF7F4FB1036BC42F7D1534694
:101C50004446B0461E6837001037534642465A6025
:101C6000AB6004AB984687E718209F6808F024F91A
:101C70000023011D836006000371C160016143619F
:101C8000B868002810D0FEF795FD03001A009B6885
:101C9000002BFBD10300F2601A00DB68002BFBD1A4
:101CA0007B6932617361B060AE60366804AB370047
:101CB0009846103760E79B6820209A4608F0FCF8A9
:101CC00053465A681B688046D11A8B460021016032
:101CD000416081609A4200D127E15B46002B00DA27
:101CE000C3E1584608F0E8F80700060010374346FD
:101CF0001E605E605B464246F318936000205346C8
:101D000083460ACB5A1A8B4200D033E15B464246E7
:101D1000F3185360414653461A695B690A614B6187
:101D200053461B7E0B7604AB9846A96024E799685E
:101D3000D8680E6803000A003700AA60EB6004ABA5
:101D40009846103718E71B7A2B72FAE618209F681E
:101D500008F0B2F80600083030603B687F689846AB
:101D6000002B00D1D7E006970F2F00D907E1012FF4
:101D700000D06EE11B78337200237760C355AE60EC
:101D8000DFE6C04604C4041028C40410F0FFFF7F3F
:101D90009B682020984608F08FF843465A681B68D5
:101DA0000600D11A8A4600210160416081609A4292
:101DB00000D1BDE05346002B00DA56E1504608F052
:101DC0007BF807005346FB18B3600020434637609A
:101DD00077600ACB82465A1A8B4200D0B4E0434661
:101DE0001A695B69326173614346574477601B7EB1
:101DF0003376AE60A5E69B680C209A4608F05CF846
:101E0000534600215A681B688046D61A016041601B
:101E100081609A4200D192E0974B9E4200D924E122
:101E2000300008F049F807004346BE191F605F60A4
:101E30009E6053461E685B689E420AD0A2461C0004
:101E4000310038001036FEF7F3FA1037B442F7D1FC
:101E5000544643465F60AB6073E69A68DB68AA60ED
:101E6000EB606EE618209F6808F026F80023011D3D
:101E7000836006000371C16001614361B868002896
:101E8000B7D0FEF797FC03001A009B68002BFBD12C
:101E90000300F2601A00DB68002BFBD17B69326122
:101EA0007361B060AE604CE62278E1682A70A26887
:101EB00000201668E96037000021237004AB9846C3
:101EC000A060E160AA60103756E6227823702A707D
:101ED0000023A168E268A960EA600022A260E360D2
:101EE0002FE68A6811688A4651685246891A202965
:101EF00000D08EE51278032A00D08AE5826A002A93
:101F000000D19EE0117802294ED0404681E50100C3
:101F10007BE500232BE6002F00D12DE757481FF06B
:101F20000DFC002F00D153E6F8E710270026DEE66F
:101F3000002747E700231027002698466DE6002675
:101F4000002771E70025DEE5380092464AF068F97F
:101F500045E704AB19000022300098462AF030FB18
:101F6000049B3060B3603A00514607F09FFF049F26
:101F700030682FE6300093464AF052F9C6E6002258
:101F8000300006A92AF01CFB069B3060B3603A00C3
:101F9000414607F08BFF069F3068EDE6019B8342C8
:101FA00000D141E53DF00AFD926806CA521A202A86
:101FB000ABD10A78032AA8D10100026C30318B46DC
:101FC000002A50D01178022901D0584621E59268A4
:101FD00011685268521A202AF7D10A78032AF4D1DC
:101FE0000100826D48318B46002A40D011780229C9
:101FF000EBD1926811685268521A202AE5D10A780A
:10200000032AE2D15D3292466030D044814500D04F
:10201000F7E4019A111A1A4AC9104A43022A00D158
:1020200036E5032A00D123E5012A00D140E5002B43
:1020300000D0F9E40198EEE446460EE62A002000BE
:10204000ECE742465EE704AB9846002F00D1C1E5BD
:1020500089E7002F00D18FE699E702002CE5020006
:102060000AE5020018E50A00ACE71FF047FB0A008A
:10207000BCE704481FF07AFBF0FFFF7F58C2041052
:10208000ABAAAAAAD0C30410F0B5DE4657464E4606
:102090004546E0B583B00090002800D144E1009BA4
:1020A000DB689B46002B00D11EE15B46DB689A464D
:1020B000002B00D1F8E05B4601935346DB6899465C
:1020C000002B00D1CEE04B46DD68002D00D1A9E009
:1020D000EE68002E00D187E0A846F568002D64D098
:1020E000EC68002C43D0E768002F22D0A346F868A4
:1020F000FFF7CAFF28233800F95C3030BC68FFF7CF
:10210000F3F93B003869183398420BD0BB69591C6E
:1021100007F0E2FE3821380007F0DEFE002C07D081
:102120002700E4E73821380007F0D6FE002CF7D16D
:102130005C4628232000E15C3030A768FFF7D4F923
:1021400023002069183398420BD0A369591C07F06B
:10215000C3FE3821200007F0BFFE002F07D03C004F
:10216000C1E73821200007F0B7FE002FF7D1282360
:102170002800E95C3030AC68FFF7B6F92B0028691D
:10218000183398420BD0AB69591C07F0A5FE3821D3
:10219000280007F0A1FE002C07D02500A0E7382179
:1021A000280007F099FE002CF7D128233000F15CBD
:1021B0003030B468FFF798F933003069183398422B
:1021C0000BD0B369591C07F087FE3821300007F0A7
:1021D00083FE002C07D026007FE73821300007F06F
:1021E0007BFE002CF7D1454628232800E95C3030DF
:1021F000AC68FFF779F92B002869183398420BD0A7
:10220000AB69591C07F068FE3821280007F064FE0E
:10221000002C07D025005BE73821280007F05CFE82
:10222000002CF7D14B4628224846995C30309C68F8
:10223000FFF75AF94B461869183398420CD04B46B1
:102240009B69591C07F048FE3821484607F044FEB8
:10225000002C07D0A14636E73821484607F03CFE5F
:10226000002CF7D1534628225046995C30309C68A8
:10227000FFF73AF953461869183398420CD0534681
:102280009B69591C07F028FE3821504607F024FEB0
:10229000002C07D0A24610E73821504607F01CFE5C
:1022A000002CF7D1019B9B465B4628225846995C3F
:1022B00030309C68FFF718F95B461869183398426C
:1022C0000CD05B469B69591C07F006FE3821584626
:1022D00007F002FE002C07D0A346E6E63821584658
:1022E00007F0FAFD002CF7D1009D28232800E95CB7
:1022F0003030AC68FFF7F8F82B00286918339842A3
:102300000CD0AB69591C009307F0E6FD382128007A
:1023100007F0E2FD002C07D00094C0E638210098B9
:1023200007F0DAFD002CF7D103B0F0BCBB46B24693
:10233000A946A046F0BDC046F0B54E46DE4657461B
:102340004546E0B59DB0279B1892269A1C0D1B03AD
:102350008346894616001F0B002C1BD080233000BB
:10236000002239005B03801859413E4300D08BE1C5
:10237000012C01D100F099FDDA48DB4984461F00A9
:1023800061188023A44401241600D84D01229B0328
:1023900064420EE0D64B9C4634003D00A4197D41BA
:1023A0000021012022002B00241A8D4112184B41DC
:1023B00061460139009401950D000896099792181D
:1023C0005B412F0010001900013D002BF7DA009C43
:1023D000019DB846089E099F424663469B1A2022EB
:1023E00052420A900B919A1800D570E12100914059
:1023F000119122009A400E92B6197F41002FFBDA0C
:102400003D2243465242D21A13019B18DB009B180F
:10241000D9005B189B019B18D9178903890BCB182E
:10242000D1178A1A9B14D20F9A1807233432FF321D
:10243000D1170B409B18AF4ADB1092461B019A4400
:1024400053461C685B6830001A0008930021002383
:1024500007F08EFB220000230C901291380000211F
:1024600007F086FB22000023149016913000002113
:10247000009407F07DFB00250C0000230C9A00203F
:1024800012196B4180240025240612196B41002586
:10249000149C0D9012196B4100250C930023169A81
:1024A000129C3800A4185D410021089A07F060FBD7
:1024B000001969410C9B0D9C1B184C41089E1693FA
:1024C0001794320000230E98002107F051FB554667
:1024D000009A00230C9012911198002107F048FBFC
:1024E000AD683200AC460A9C0B9D002314901991F4
:1024F00020000021E04407F03BFB009A0700002386
:1025000028001A91002107F033FB009A06000023EF
:1025100020001B91002107F02BFB3C000A00002546
:10252000002312196B4180240025240612196B41E7
:102530003400002512196B41089F1C003A0000234B
:102540000B98002107F014FB01225242D317801888
:10255000594100231A9A564612184B4100211B98E4
:10256000002512184B41A4185D41F368189E5B4288
:102570003A0033601198002307F0FAFAC243CB43C4
:10258000002119982600121A8B41002112982F0061
:10259000121A8B410E98B6185F41009A00231294CC
:1025A000139507F0E5FA00230A0000210C98002596
:1025B00012184B4180200021000612184B410021C7
:1025C000149812184B4131001C003A00091BAA4113
:1025D000129C139D0E910F92169A179BA41A9D415F
:1025E000402342465B429B1A009401950C93203B8A
:1025F0009A464FD40023002452460A930B94013389
:1026000093400B9301230C9A93400A935346002B5B
:1026100051DB1398D8400A9C0B9D01225242D317DC
:10262000A4185D411299139A23002C000D001493F5
:1026300015941D40304B224008950992984267D866
:102640002E4B984200D919E32D4B984200D9FDE258
:102650002C4B984200D91DE32B4B984200D925E31F
:102660002A4B984200D926E3FA239B00984200D3D4
:10267000A3E3632800D9B6E3092801D900F0C8FB19
:1026800001239846119347E0174B06009C460F0024
:10269000A44481E620230C9A00219B1A00220A916F
:1026A0000B920122DA4001230B920C9A93400A9379
:1026B0005346002BADDA202314009B1A1299139A6B
:1026C0001000984003000800E0401843A3E72022D0
:1026D0002100D21AD1400A002900994011431191DA
:1026E00087E6C046CBFBFFFFCCFBFFFFFFFF3F00B1
:1026F000CDFBFFFF20CA0410FFC99A3BFFE0F505A0
:102700007F9698003F420F009F8601000F27000030
:10271000CF4B98460A231193414606F035FB4B46B2
:102720000D0049461B6830305A1C0A605A46D05486
:10273000119B5C1E5346002B00DA5DE22B005246D3
:1027400093401F002B000C9A93401E00089A099B8F
:10275000B6185F410F9B9F4200D8B1E20A21404664
:1027600006F012FB1990002C00D166E10100280050
:1027700006F00AFB4B460D0049461B6830305A1CD8
:102780000A605A46D054119B9C1E5346002B00DA17
:1027900039E22B00524693401F002B000C9A9340C5
:1027A0001E00089A099BB6185F410F9B9F4200D8F4
:1027B00007E36421404606F0E7FA1990002C00D1A7
:1027C0003BE10100280006F0DFFA4B460D004946C8
:1027D0001B6830305A1C0A605A46D054119BDC1ECC
:1027E0005346002B00DA15E22B00524693401F009F
:1027F0002B000C9A93401E00089A099BB6185F4163
:102800000F9B9F4200D8E6E2FA214046890006F07D
:10281000BBFA1990002C00D10FE10100280006F04E
:10282000B3FA4B460D0049461B6830305A1C0A600B
:102830005A46D054119B1C1F5346002B00DAF0E17E
:102840002B00524693401F002B000C9A93401E0011
:10285000089A099BB6185F410F9B9F4200D8C7E2B8
:1028600040467C4906F090FA1990002C00D1E4E033
:102870000100280006F088FA4B460D0049461B6807
:1028800030305A1C0A605A46D054119B5C1F534684
:10289000002B00DACCE12B00524693401F002B00A6
:1028A0000C9A93401E00089A099BB6185F410F9B33
:1028B0009F4200D8A4E24046674906F065FA1990A5
:1028C000002C00D1B9E00100280006F05DFA4B466B
:1028D0000D0049461B6830305A1C0A605A46D054D5
:1028E000119B9C1F5346002B00DAA8E12B00524697
:1028F00093401F002B000C9A93401E00089A099BDE
:10290000B6185F410F9B9F4200D886E2404653496C
:1029100006F03AFA1990002C00D18EE00100280050
:1029200006F032FA4B460D0049461B6830305A1CFF
:102930000A605A46D054119BDC1F5346002B00DA24
:1029400089E12B00524693401F002B000C9A9340C4
:102950001E00089A099BB6185F410F9B9F4200D842
:1029600063E240463E4906F00FFA1990002C64D00D
:102970000100280006F008FA4B460D0049461B6886
:1029800030305A1C0A605A46D0545346119C083CB9
:10299000002B00DA6BE12B00524693401F002B0006
:1029A0000C9A93401E00089A099BB6185F410F9B32
:1029B0009F4200D841E240462A4906F0E5F91990C5
:1029C000002C3AD00100280006F0DEF94B460D003D
:1029D00049461B6830305A1C0A605A46D054534648
:1029E000119C093C002B00DA4DE12B00524693402C
:1029F0001F002B000C9A93401E00089A099BB618E2
:102A00005F410F9B9F4200D81FE24046104906F0ED
:102A1000BBF98046002C10D04B464A461C6801008A
:102A2000631C1360280006F0AFF95B463030185580
:102A30000F9A099B934200D80FE20E9E0F9F202011
:102A400000210C9B8C46C01A11900898099937E018
:102A500000CA9A3B10270000A086010040420F00E8
:102A60008096980000E1F505099ADA405B4630321D
:102A70001A550123BA009846B30F1A43B3000592C2
:102A80000493049A059B92197B4192185B410E9224
:102A90000F931F00009B16009C0F019BC4449B00DA
:102AA00023430793009C019DA3000693069A079B6E
:102AB000A4185D4124196D4100940195B94228D9AB
:102AC000830F8A001A43830003920293029A039BA6
:102AD00012184B4192185B4108920993149B159C64
:102AE0001A002300099C089D234019004B461C68CE
:102AF0002A40651C1D6053461000002BB4DA119B60
:102B0000099A089D9A4013000C9AD5402A001A434E
:102B1000ACE7B94201D1B042D2D80E9A0F9B0890CF
:102B200009916146189E3768791A316049460968EB
:102B300000978C4609998D4200D89BE1089E099F19
:102B400010001900801BB9410B9E8E4235D800D170
:102B5000A2E10A980B99121A8B41089809996646C6
:102B6000121A8B41013EE0460F00B4460600009267
:102B70000193029403950A9C0B9D3000390036198D
:102B80006F41029C039DBD421ED801D1B4421BD8A7
:102B9000029C039D22002B00121A8B413000390049
:102BA000001BA941C4468B4200D878E067465B46CB
:102BB0005A46013FDB5D013BD3551DB0F0BCBB461F
:102BC000B246A946A046F0BD60460A9A0B9B5946FC
:102BD0006446095C5846013901551000009C019D6E
:102BE0001900241A8D412900019D2000AB42E4D830
:102BF00038D000900191BEE720230C9A9B1A2A003E
:102C0000DA4017009EE520230C9A9B1A2A00DA402E
:102C10001700C2E520230C9A9B1A2A00DA401700FD
:102C2000E6E520230C9A9B1A2A00DA4017000BE6EF
:102C300020230C9A9B1A2A00DA4017002FE6202343
:102C40000C9A9B1A2A00DA40170053E69A4B9846D2
:102C50000823119360E520230C9A9B1A2A00DA407E
:102C6000170072E60A9C009B9C42C2D9A5E720236C
:102C70000C9A9B1A2A00DA40170090E68F4B984670
:102C80000923119348E520230C9A9B1A2A00DA4065
:102C90001700AEE68A4B9846072311933CE58B421A
:102CA00000D08AE7824200D980E786E7854B9846C4
:102CB0000623119330E5844B9846052311932BE5A9
:102CC0000E9A0F9B9F4202D1964200D946E5189B6F
:102CD0001A68944664441C6053460292002B5BDBE6
:102CE000414699400B0041460C9881400A004946F4
:102CF000096888460199B94200D8C4E00E980F9936
:102D0000801BB9418B4200D957E700D1C9E00124AB
:102D1000801A994164424444A44602900391009869
:102D2000019904960597B6185F41B9421CD801D1A4
:102D3000B04219D8049C059D009A019B12981399E2
:102D4000121BAB4114001D00169A179B121A8B41DF
:102D500092197B419D422AD943465A465946013B26
:102D6000D25C013ACA5428E765465C466146645D18
:102D70005D46013C6C540298039904000D00A41AAE
:102D80009D41049405958B4200D916E70BD0049819
:102D9000059902900391C2E7202140460C9BC91A75
:102DA000C84003009FE702998A42F0D905E79D4297
:102DB00000D002E79442CFD8FFE69846042311934F
:102DC000AAE40E9A0F9B9F4202D1964200D9F0E4EA
:102DD000199B98467BE70E9A0F9B9F42F8D196422B
:102DE00000D911E5F4E764239846613B119393E41D
:102DF0000E9A0F9B9F42EBD1964200D930E5E7E750
:102E00000E9A0F9B9F42E3D1964200D953E5DFE72C
:102E10000A239846083B11937EE40E9A0F9B9F422B
:102E2000D6D1964200D971E5D2E70E9A0F9B9F4208
:102E3000CED1964200D994E5CAE70E9A0F9B9F42E5
:102E4000C6D1964200D9B6E5C2E70E9A0F9B9F42C3
:102E5000BED1964200D9D8E5BAE70899099A0E9BE7
:102E60000F9CA24202D1994200D9E6E50024089EB7
:102E7000099F2CE7089809998D4200D09DE684426D
:102E800000D95BE699E600980199B94200D094E632
:102E9000B04200D932E790E60A9E864200D858E652
:102EA0008BE6824200D832E787E6084916008C4656
:102EB0001F00FFF771FAC0468096980000E1F50503
:102EC00040420F00A086010010270000CDFBFFFF4D
:102ED000F0B5DE46454657464E46E0B51D000B7838
:102EE00083460C0089B0092B21D8D2499B00CB58CE
:102EF0009F465B461868D04A03681B68934201D01E
:102F000000F0E0FF446822006568236808326E1C08
:102F1000934201D101F078FCA268964201D900F0F9
:102F2000C6FF30225A550022236866609A5509B0C0
:102F3000F0BCBB46B246A946A046F0BD0122E668F9
:102F4000A5687400640828002100BC4B524206F0BA
:102F5000F4F900280AD1012228002100B74B52427F
:102F600006F0E6F9002801D100F09FFD5B461868E5
:102F7000B34A03685B68934201D001F0A2F940684C
:102F8000B04B42689B1A032B01D801F0E3FE0422E8
:102F9000AD4929F047FDCAE7A3685B69002B01D161
:102FA00001F03BF900680368002A01D100F026FE19
:102FB000A34A5B680292934201D001F012FD40687F
:102FC000A04B42689B1A012B01D801F0C3FE0222DC
:102FD0009E4929F027FD9420129A80009446139B65
:102FE0005844416863449846994201D201F0E2FD99
:102FF000A368DF685B69012B00D181E000235E4696
:103000009A46A346A9469422306892000368B158B4
:103010005B68029A934201D001F0DCF94068894B69
:1030200042689B1A984501D901F094FE424629F066
:10303000F9FC3068804A03681B68934201D001F0B4
:10304000C5F9446822006368083204935D1C236854
:10305000934201D101F0F1F9A268954201D901F042
:1030600025F9222204995A540022236865605A5592
:1030700039004A4630001031FDF77CFE3068029A74
:1030800003685B68934201D001F096F940686D4B8C
:1030900042689B1A022B01D801F05CFE03226C49A6
:1030A00029F0C0FC434639000193129B01223000F5
:1030B000009328314B46FFF70BFF3068029A0368F4
:1030C0005B68934201D001F07CF940685D4B426837
:1030D0009B1A012B01D801F03DFE02225D4929F027
:1030E000A1FC01239C463800E24413F0B3FB5B468D
:1030F0009B6807005B69013B534584D8B3464D4646
:103100005B469422594618689200036889585B68A8
:10311000029A934201D001F072FC4068494B426828
:103120009B1A984501D901F015FE424629F07AFC18
:103130005B461868404E03681B68B34201D001F03B
:103140005AFC4468636822009A4601235344994616
:1031500023680832934201D101F0BBFCA26891457B
:1031600001D901F0C6FB222251465A544B46002297
:103170004946636023685A5439002A005846103182
:10318000FDF7F8FD5B461868029A03685B68934296
:1031900001D001F00EFC40682A4B42689B1A022BBA
:1031A00001D801F0D7FD0322294929F03BFC434611
:1031B00039000193129B5846009301222B002831BD
:1031C000FFF786FE5B46186803681B68B34201D0B0
:1031D00001F0EBFB446822006768236808327D1C1D
:1031E000934201D101F080FCA268954201D901F01F
:1031F00075FB0A22DA550022236865605A555B4642
:103200009422594618689200036889585B68029AAC
:10321000934201D001F0D2FB40680A4B42689B1AEE
:10322000139A9A4201D901F095FD29F0FBFB00F0B9
:10323000C8FDC046CCC40410ED030010FFFFEF7FB3
:103240009D030010FFFFFF3F84C4041050C404100E
:1032500080C4041054C40410A36859681B689942C0
:1032600001D101F0D3F800680368002A01D100F011
:1032700050FCDD4A5B680292934201D001F070FB82
:103280004068DA4B42689B1A012B01D801F062FDBD
:103290000222D74929F0C6FB9420129B80009C464D
:1032A000139F5844416867448F4201D901F077FC6D
:1032B000A26853681668103B9E4242D094239B003C
:1032C0009946CC4BA24698465C46AB46029D4A4680
:1032D0002068A15803685B68AB4201D000F0FEFF94
:1032E0004068C24B42689B1A9F4201D901F032FDEF
:1032F0003A0029F097FB129B2000009301225B46C5
:1033000031000197FFF7E4FD206803685B68AB427A
:1033100001D000F0DEFF4068B44B42689B1A012BDD
:1033200001D801F017FD0222414629F07BFB5346EC
:103330009B6810365B68103BB342C8D15D46A3461C
:1033400054465B469422594618689200036889588F
:103350005B68029A934201D001F0FAFA4068A34BED
:1033600042689B1A9F4201D901F0F4FC3A0029F00F
:1033700059FBA36858465968129B012200931039E3
:103380002B000197FFF7A4FD5B4618689A4E03686F
:103390001B68B34201D001F0D7FA44682200676885
:1033A000236808327D1C934201D101F030FBA268F2
:1033B000954201D901F012FA0A22DA550022236857
:1033C00065605A555B469422594618689200036816
:1033D00089585B68029A934201D001F0C6FA4068AE
:1033E000824B42689B1A139A9A4201D901F0B2FCAF
:1033F00029F018FB5B46186803681B68B34201D0CC
:1034000001F019F9446822006568236808326E1CCF
:10341000934201D101F070F9A268964201D900F0FF
:103420003AFD5D227EE50068734E03681B68B34277
:1034300001D000F0DFFF47687B683A00994601231E
:103440004B4498463B680832934201D101F027F97A
:10345000BA68904501D900F007FD222249465A5426
:103460004346002241467B603B685A5458462A0036
:10347000A168FDF77FFC5B46186803681B68B342D0
:1034800001D000F0AEFF446822006668236808326D
:10349000751C934201D101F005F9A268954201D94A
:1034A00000F0D7FC22229A550022236865605A5505
:1034B0003DE5237A002B00D1E1E200684A4A036827
:1034C0005B68934201D001F0D2F94068474B4268F3
:1034D0009B1A032B01D801F03DFC0422474929F037
:1034E000A1FA24E5A268E3681100194300D100E5C0
:1034F000082159440491002B01DA00F079FC1600F0
:103500001F1E01DC01F001FC19003D4B1000994623
:103510003C4B01259A460296039700233A4A07003E
:103520000C0005F073FC2B000435002CF5D1574539
:1035300001D801F085FC4F4501D801F01AFA334B50
:103540009F4201D801F088FC314B9F42E5D8029E92
:10355000039F0335049B5B19023B98462D4BA946FC
:103560009A464446300039006422002305F04EFCA0
:1035700090460023642230003900029605F046FC94
:1035800043465A0052443D000F00517823006170B9
:10359000127806002270023C002DE3D1029A1E49E7
:1035A0008A42DFD81100FA224D469200914201D39F
:1035B00000F05EFE013B30361E705B4618680A4A1A
:1035C00003685B68934201D001F07FF84068074BC5
:1035D00042689B1AAB4201D201F0BCFB2A0004995D
:1035E00029F020FAA3E4C0469D030010FFFFFF3F2F
:1035F00060C4041054C40410ED030010B0C40410DF
:103600003F420F009F860100102700007F96980020
:10361000FFE0F505C4C704100F270000A568E668A1
:103620002B00334300D164E408235B440293002E53
:1036300001D101F034FBBF4B28009946BE4B31004D
:1036400001279A46A8460023BC4A05000C0005F055
:10365000DDFB3B000437002CF5D1B94A954201D877
:1036600001F0BFFB4D4501D801F01FF8554501D8C9
:1036700001F021F8B34A9542E5D84546DF1D029B8B
:10368000DB19B846023B9946AF4B04932800310042
:103690006422002305F0BAFB92460023642228002E
:1036A000310005F0B3FB53465A00049B34009C469E
:1036B0004B4662440E0051782F0059701278050075
:1036C0001A709A1E9146002CE0D1A04A9742DDD88C
:1036D000BA46FA2247469200924501D300F0B7FD60
:1036E000013B30351D705B461868994A03685B687A
:1036F000934201D000F0EEFF4068964B42689B1A5F
:103700009F4201D901F026FB3A00029929F08AF97B
:10371000FFF70DFC006803685B68002A00D1EAE04F
:103720008B4A0292934201D001F081F84068894BA4
:1037300042689B1A012B01D801F00CFB022286493A
:1037400029F070F99420129A80009446139B5844F3
:103750004168634404938B4201D901F0D0F95B4680
:103760009422594618689200036889585B68029A47
:10377000934201D001F057F84068764B42689B1A9B
:10378000049A9A4201D901F0E5FA29F04BF95B4617
:103790001868029A03685B68934201D001F03EF812
:1037A00040686C4B42689B1A092B01D801F0D2FA91
:1037B0000A226A4929F036F9A3680CCB9A4200D153
:1037C000EEE3013B9A4200D1A7E3A24614005AE07F
:1037D00008235B4499462800092D01D800F047FFD3
:1037E000632D01D801F07BF903235E4698460B3622
:1037F000642200232800002105F008FB00231700A5
:1038000028006422002105F001FB554B7F009C46F7
:1038100067447A78731E1A703B78023E3370013E1B
:10382000303030705B461868029A03685B689342D8
:1038300001D000F0EDFC4068464B42689B1A4345BE
:1038400001D201F087FA4246494629F0EBF85B467F
:103850001868029A03685B68934200D043E34068AB
:103860003C4B42689B1A012B01D801F073FA0222EB
:103870003C4929F0D7F853469B6801345B68013B0B
:10388000A34200D148E32578002DA1D15B461868FA
:10389000354A03681B68934201D000F0AFFD4568CC
:1038A0002A006F682B6808327E1C934201D100F019
:1038B00009FFAA68964201D900F023FD3022DA55AB
:1038C00000222B686E609A55C1E70068204A0368A1
:1038D0005B68934201D000F088FD40681D4B426850
:1038E0009B1A0A2B01D801F035FA0B221F4929F047
:1038F00099F8FFF71CFB164A0292934201D000F0A0
:103900009BFF4068134B42689B1A092B01D801F0BA
:1039100021FA0A22164929F085F8A3680CCB9A42AD
:1039200001D100F033FC013B9A4200D1ECE3A24606
:10393000140080E03F420F007F969800102700009F
:103940009F860100FFE0F5058CC804100F270000DA
:103950009D030010FFFFFF3F50C4041064C4041017
:1039600054C9041070C40410ED030010C0C4041046
:103970008CC4041008235B4499462800092D01D803
:1039800000F05DFE632D01D801F0B1F803235E461F
:1039900098460B36642200232800002105F036FAF1
:1039A0001700002364222800002105F02FFA8E4A18
:1039B0007F00BF187A78731E1A703B78023E33700E
:1039C000013E303030705B461868029A03685B68CD
:1039D000934201D000F016FC4068844B42689B1A69
:1039E000434501D201F0B6F94246494629F01AF89A
:1039F0007F4D5B46186803681B68AB4200D06FE2DE
:103A000045682A006F682B6808327E1C934200D1FB
:103A1000ECE3AA68964200D958E22C22DA5500223B
:103A20002B686E609A5553469B6801345B68013B76
:103A3000A34200D167E32578002D9BD15B4618682F
:103A40006B4D03681B68AB4201D000F0DBFC46689D
:103A500032007368083298465F1C3368934201D184
:103A600000F02DFEB268974201D900F03FFC3022F1
:103A700041465A54002233687760DA55B9E7006846
:103A80005C4A03685B68934201D000F0E8FE40683E
:103A9000564B42689B1A042B01D801F05BF90522B2
:103AA000554928F0BFFFFFF742FA5F4608373C0050
:103AB000002E07DA80231B069C465A462D236644B7
:103AC00001341372002200232800310005F012FC9B
:103AD000002801D100F038FC30232E2223706270C0
:103AE000E51CA3705B46186842490368EA1B5B68E3
:103AF0008B4201D000F0C0FE40683C4B41685B1A2D
:103B00009A4201D901F026F9390028F08BFFFFF71E
:103B10000EFA1B68364EB34201D000F01DFF476815
:103B20007B683A00994601234B4498463B6808322B
:103B3000934201D100F06EFFBA68904501D900F0C0
:103B400058FE5B2249465A544346002241467B6058
:103B50003B685A54A36859681A6810398A4237D0AA
:103B6000B146A84626005D461400139B2800019329
:103B7000129B0022009321004346FFF7A9F9286811
:103B800003681B684B4500D0A0E347687B683A0098
:103B90009B4601235B449A463B680832934201D11D
:103BA00000F01CFCBA68924500D921E32C2259464A
:103BB0005A545346002251467B603B685A54B368BE
:103BC000103459681039A142CFD1AB464E46454614
:103BD000139B00220193129B584600932B00FFF782
:103BE00077F9FFF707FCC04654C90410FFFFFF3FF9
:103BF000ED0300109D030010B8C404101B68BC4EF8
:103C0000B34201D000F0DEFE47687B683A00994677
:103C100001234B4498463B680832934201D100F09F
:103C20006BFFBA68904501D900F06EFE7B224946D1
:103C30005A544346002241467B603B685A54A3686D
:103C4000DF685B69012B01D100F0A0FE0023A846CC
:103C5000A2465D46B1460493A64B029328680368CA
:103C60001B684B4500D0A4E3446822006368083217
:103C70009B465E1C2368934200D1E1E3A268964212
:103C800000D909E3222259465A540022236866606B
:103C90009A553900424628001031FDF76BF8286824
:103CA000029A03685B68934200D07BE34068924BC2
:103CB00042689B1A012B01D801F04CF802228F496F
:103CC00028F0B0FE3900139B28000193129B0022BC
:103CD000009328314346FFF7FBF8286803681B6808
:103CE0004B4500D062E344682200636808329B467B
:103CF0005E1C2368934200D19DE3A268964200D9DE
:103D0000C0E22C2259465A540022236866609A5514
:103D1000049C38000134049412F09CFD53469B68C7
:103D200007005B69013BA34298D8AB464E46454627
:103D30005B46186803681B68B34201D000F063FE5D
:103D4000446863682200994601234B4498462368DF
:103D50000832934201D100F0BFFEA268904501D91C
:103D600000F0DDFD222249465A54434600224146D6
:103D7000636023685A5439002A0058461031FCF712
:103D8000F9FF5B461868029A03685B68934201D0AA
:103D900000F02CFE4068584B42689B1A012B01D85A
:103DA00000F0D8FF0222554928F03CFE3900139B51
:103DB00000220193129B5846009328312B00FFF7F5
:103DC00087F85B46186803681B68B34200D089E235
:103DD00044682200666823680832751C934201D14A
:103DE00000F087FCA268954249D87D22FFF75BFB73
:103DF0002D21002756429F410172002F01D100F072
:103E0000B1FF3F4B300099463E4B390001259A46A1
:103E10000296039700233C4A07000C00043504F087
:103E2000F5FF002CF6D1394B9F4201D801F00FF875
:103E30004F4501D801F008F8574501D801F011F8B5
:103E4000334B9F42E6D80335029E039F0135FFF7AF
:103E500081FB01230022009331000023200028F081
:103E6000F1FB2368FFF71EFB012300220093494664
:103E70000023380028F0E6FB3B68FFF7EEFA012349
:103E80000022009331000023200028F0DBFB7D227C
:103E90002368FFF708FB0123002200932900002379
:103EA000200028F0CFFB5D222368FFF73BF80123B9
:103EB0000022009329000023200028F0C3FB236880
:103EC000FFF72FF830219847FFF731F80123002240
:103ED000009339000023280028F0B4FB2B689CE5F0
:103EE0002C2198479FE502220A499847C3E4C0461F
:103EF000ED0300109D030010FFFFFF3F58C40410A6
:103F00003F420F007F969800102700009F86010017
:103F1000FFE0F50570C4041054461D78002D01D152
:103F200000F02AFC08235B4499462800092D01D89B
:103F300000F096FE632D01D800F00FFF03235F46CB
:103F400098460B37642200232800002104F05EFF0E
:103F50001600002364222800002104F057FFEE4BD6
:103F60007600F61872787B1E1A703378023F3B7029
:103F7000013F303038705B461868029A03685B680E
:103F8000934201D000F0C1FD4068E44B42689B1AA7
:103F9000434501D200F0DEFE4246494628F042FD8C
:103FA0005B461868029A03685B68934201D000F090
:103FB00051FC4068D94B42689B1A022B01D800F093
:103FC000C9FE0322D64928F02DFD5B4694225946AE
:103FD00018689200036889585B68029A934201D07E
:103FE00000F034FC4068CD4B42689B1A049A9A4218
:103FF00001D900F0AFFE28F015FD5B461868029A63
:1040000003685B68934201D000F01BFC4068C34B1F
:1040100042689B1A0A2B01D800F09CFE0B22C14972
:1040200028F000FDA3681A7E002A00D00AE25B4651
:104030001868029A03685B68934201D000F0CBFCD9
:104040004068B64B42689B1A032B01D800F082FEF1
:104050000422B54928F0E6FCB44E5B4618680368B4
:104060001B68B34201D000F0FFFB44682200676880
:10407000236808327D1C934201D100F084FCA268C1
:10408000954200D92BE30A22DA55002223686560A5
:104090005A555B469422594618689200036889581D
:1040A0005B68029A934200D0B1E340689B4B426840
:1040B0009B1A139A9A4201D900F04CFE28F0B2FCE8
:1040C0005B46186803681B68B34200D00AE1446885
:1040D00022006568236808326E1C934201D100F00B
:1040E0004FFCA268964202D87D22FEF71BFF0123F7
:1040F0000022009329000023200028F0A3FA7D224B
:104100002368FEF70FFF54461D78002D00D1F6E21C
:1041100008235B4498462800092D01D800F086FD4D
:10412000632D01D800F02FFE5E4603270B36642274
:1041300000232800002104F069FE91460023642238
:104140002800002104F062FE4B46734A5B009B1876
:104150005978721E11701B78023E3370013E303068
:1041600030705B461868029A03685B68934201D01E
:1041700000F0D0FC4068694B42689B1ABB4201D2F8
:1041800000F0E8FD3A00414628F04CFC5B46186818
:10419000029A03685B68934200D03BE340685F4B40
:1041A00042689B1A0B2B01D800F0D4FD0C22604909
:1041B00028F038FCA3681A7E002A00D0BFE15B46D5
:1041C0001868029A03685B68934201D000F0FEFB16
:1041D0004068524B42689B1A042B01D800F0BAFD8C
:1041E0000522544928F01EFCFEF7A1FE0F2211E41F
:1041F00001230022009359460023380028F022FAB8
:104200003B68D3E4424649469847484DFFF7F1FBE7
:10421000424649469847FFF71AFB0068464A03683A
:104220005B68934200D0BBE340683C4B42689B1AFA
:10423000012B01D800F08EFD0222404928F0F2FB4C
:10424000FEF775FE030002273D4A0A330492049AE2
:104250006D009446654469785A1E11702A78023BB5
:104260001A70FFF740FA030002250A33354A9246D6
:104270007600564471785A1E11703278023B1A70DB
:10428000FFF79BF9012300220093594600232000E9
:1042900028F0D8F9236834E5012300220093594619
:1042A0000023200028F0CEF92368EBE4012300224C
:1042B000009320000023049928F0C4F92368FEF736
:1042C000D0FE042218499847FEF731FE2C2198476A
:1042D00075E4022241469847FFF729F83A009847CB
:1042E000FFF709F87D219847FEF721FE0123002200
:1042F000009341460023300028F0A4F93368FFF70B
:10430000B6FB01230022009339000023280028F087
:1043100099F92B68FFF7D2FA54C90410FFFFFF3F49
:1043200074C4041078C4041084C40410ED03001095
:1043300098C40410A8C404109D0300104CC40410B9
:104340008CC80410C4C7041033002A0006900092E1
:104350000193079007AA200006A9FDF7EDFF079B30
:10436000069E9846F518AE4200DD22E20F2D01DCD4
:1043700000F03EFC012E00D0DCE201346523237006
:104380006E1E00D506E3A31C98462B236370092EEE
:1043900000DD75E24246302330361370951C5670AE
:1043A000FFF7A0FB0222E44998478BE42C219847B1
:1043B000AEE4222198476CE40322E0499847FEF7D7
:1043C00071FE0222DE499847FEF78BFE22219847B4
:1043D000FEF74EFE42469847FEF72BFE0F22FFF7F0
:1043E000E2FB22219847FEF7A2FD0B22D549984710
:1043F000FEF79DFD22219847FFF738F830219847B6
:10440000FFF725FA30219847FFF7F3FA0068CE4A04
:1044100003685B68934200D0C7E34068CB4B4268B7
:104420009B1A012B01D800F095FC0222C84928F004
:10443000F9FAFEF77CFD0F2260E40F22FEF70DFE75
:104440000F221CE41D695B6999462B4300D1E4E20D
:1044500008235B4405934B46002B01D100F0AFFCD1
:1044600001239A46BB4B5446280049469846AA4623
:10447000B94F0023B94A05000E0004F0C7FC230021
:104480000434002EF5D1B64A954201D800F0F3FC71
:10449000BD4201D800F0FDFB454501D800F0E8FC25
:1044A000B04B9D42E5D85546A24603239C46E244C4
:1044B000059F4C465744023FB846AB4B0493280037
:1044C00021006422002304F0A1FC91460023642211
:1044D0002800210004F09AFC4B465A00049B260059
:1044E0009C46434662440C0051782F005970127864
:1044F00005001A709A1E9046002EE0D19B4A974202
:10450000DDD8FA229200974200D3C6E2013B303553
:104510001D705B461868029A03685B68934200D07E
:104520007EE34068894B42689B1A9A4501D900F0A6
:1045300011FC5246059928F075FA8D4E8DE51D69DE
:104540005B6999462B4300D184E208235B440593C1
:104550004B46002B01D100F047FC01239A467D4BCE
:104560005446280049469846AA467B4F00237B4A7A
:1045700005000E0004F04AFC23000434002EF5D19F
:10458000774A954201D800F07AFCBD4200D863E337
:10459000454501D800F069FC724B9D42E6D855466E
:1045A000A24603239C46E244059F4C465744023FE3
:1045B000B8466D4B0493280021006422002304F0C8
:1045C00025FC9146002364222800210004F01EFCF3
:1045D0004B465A00049B26009C46434662440C000E
:1045E00051782F005970127805001A709A1E904663
:1045F000002EE0D15D4A9742DDD8FA229200974220
:1046000000D35BE2013B30351D705B461868029AAF
:1046100003685B68934200D0FCE240684B4B426801
:104620009B1A534500D295E35246059928F0FAF9B2
:104630004F4EFFF7C6FB5D219847FEF778FC5E46BC
:10464000012309369846632D01D9FFF7A3F9092DF7
:1046500001D8FFF7B5F9474B6D009C4665446A7871
:10466000731E1A702B78023E3370FFF7ACF95E466A
:10467000012309369846632D01D9FFF7B9F8092DB2
:1046800001D8FFF7CCF83B4B6D009C4665446A7837
:10469000731E1A702B78023E3370FFF7C3F80F2297
:1046A000FEF7D7FE0F22FEF7F9FE5F1D029B45467F
:1046B000DB19FEF7E6FF45469F1DFEF7E0FF0F22E0
:1046C000FFF7D1F90F22FFF7F5F82A000499984770
:1046D000FEF72DFC3A0002999847FEF728FC0123CB
:1046E0000022009339000023200027F0ABFF23684D
:1046F000C9E40F22FFF777FB0F22FEF78EFE5B4621
:1047000018681B4E03681B68B34200D06CE2456812
:104710002A006F682B6808327E1C934200D1B6E2F3
:10472000AA68964200D955E23022DA5500222B6859
:104730006E609A552AE5C04658C4041080C404101F
:1047400054C40410C0C404109D030010FFFFFF3FB9
:104750005CC404107F9698003F420F0010270000B1
:104760009F860100FFE0F5058CC804100F270000AC
:10477000ED03001054C904105B461868E84E036846
:104780001B68B34200D041E245682A006F682B687D
:1047900008327E1C934200D17FE2AA68964200D97B
:1047A0000EE23022DA5500222B686E609A55FFF730
:1047B000F7FB002D78DD0F2D00DDDBE56319994651
:1047C0004346681C5A424946201847F029FD2E23CB
:1047D0004A46751C13706519FFF784F901230022FE
:1047E000009339000023200027F02CFF2368FEF7F8
:1047F000E3FD01230022009349460023380027F0FF
:1048000021FF3B68FFF79DF90F22FEF786FB139A05
:10481000984755E40C22C3499847CBE40A22C24981
:104820009847FEF7C9FF049A9847FEF7B0FF0222A7
:10483000BE499847FEF786FF0A22BD499847FFF711
:104840006CF80B22BB499847FFF7ECFB049A98479A
:10485000FFF7D3FB0322B8499847FFF7B6FB0522C1
:10486000B6499847FEF763FB0A21984711E40422F2
:10487000B3499847FEF75BFB39009847FEF757FBB3
:10488000632E00DD6EE10A21300004F07DFA43461C
:10489000303018700A2130009D1C04F075FA434630
:1048A00030315970FFF71EF9EB1C00DA62E5022384
:1048B000581B320021002018994647F0B1FC3023E4
:1048C0002370023B6A4263703021A01C05F0E8FAB5
:1048D0004B4642469D1A6519FFF704F90123002251
:1048E000009339000023200027F0ACFE2368FEF778
:1048F00080FC01230022009351460023200027F072
:10490000A1FE2368FEF72FFC0123002200934946F5
:104910000023380027F096FE3B68FFF787F9012354
:104920000022009349460023200027F08BFE2368D5
:10493000FFF718FA721E611CA01C47F071FC2E23B1
:1049400001366370A41919E50A219847FEF73AFD6C
:104950003A009847FEF70DFD5B219847FFF7FAF8FC
:10496000022278499847FEF797FC139A9847FEF77A
:1049700041FD5D1D049B029E039F5B19FEF7ECFD4C
:104980000F22FFF7AFFB0F22FFF77AFB6E4B02936C
:10499000FFF7CEF90126A31C9846761B2D23F5E4DC
:1049A00002226A499847FEF7C2FA0A219847FEF7A1
:1049B00026FC032266499847FEF7F9FB139A9847AD
:1049C000FFF7FFF97B219847FFF739F90522614985
:1049D0009847FEF7ACFA04225F499847504EFFF71C
:1049E0003CFB022251499847FEF7F5FA02225B4947
:1049F0009847FFF7DBF922219847FEF7BDFB4246B7
:104A00009847FEF795FB22219847FFF7B4F90F224C
:104A1000FEF7CEFC0F22FFF790F85B461868404E79
:104A200003681B68B34200D06BE1446822006768EA
:104A3000236808327D1C934200D187E1A268954229
:104A400000D946E13022DA550022236865605A55C4
:104A5000FFF703FB5B461868314E03681B68B342DF
:104A600000D04AE1446822006768236808327D1C50
:104A7000934200D16CE1A268954200D933E1302223
:104A8000DA550022236865605A55FFF79AF9022229
:104A90005B469246324A0A330492049A6D00944669
:104AA000654469785A1E11702A78023B1A7030E505
:104AB00002225B4692462A4A0A330492049A6D0007
:104AC0009446654469785A1E11702A78023B1A7020
:104AD0009BE50F22FEF743FB0F22FFF73FF95E46EF
:104AE00002230A369846CAE50F22FEF77EFB5E4691
:104AF00002230A369846AAE50F22FFF793F82022F0
:104B0000490027F0B7FEFEF72AFE4246494698477D
:104B1000FFF746FA3A0041469847FFF737FBC04691
:104B2000ED03001098C4041064C4041050C40410B1
:104B30008CC4041078C4041074C40410B8C40410E5
:104B4000B0C4041060C404109D0300104CC40410D1
:104B500080C40410A8C4041084C4041058C40410F1
:104B60008CC804106421300004F00EF94346303044
:104B700018706421300004F007F90C000A212000AD
:104B800004F002F94346303058700A212000DD1C41
:104B900004F0FAF8434630319970FEF7A3FF202263
:104BA000490027F067FEFEF783FB0222B6499847CB
:104BB000FEF7BDF92022490027F05CFEFEF718FA47
:104BC00001230022009339000023280027F03AFD3A
:104BD0002B68E6E50123002200933900002328001A
:104BE00027F030FD2B689FE530219847FFF7CEFA7C
:104BF0001A003021A01905F053F92E2330226355F5
:104C0000631902355A706519FEF76CFF3021984719
:104C1000FFF7C6F95246059998479C4EFFF7D1F821
:104C2000524605999847994EFFF717FA5E460127B5
:104C30000936632D01D9FFF77AFA092D01D8FFF75C
:104C40008DFA934B6D00ED186A78731E1A702B78ED
:104C5000023E3370FFF785FA053355469A46A3E4C2
:104C60005F46012309379846632D01D9FFF76AF99A
:104C7000092D01D8FFF77CF9854B6D00ED186A7896
:104C80007B1E1A702B78023F3B70FFF774F90F22DE
:104C900047E5053355469A460AE40F227EE5092D7D
:104CA0000FD9632D01D8FFF7CDFAFA239B009D425F
:104CB0000CD3784B9D4201D9FEF7BDFC0427FEF7CB
:104CC000DEFC030001270933FEF70AFD0327FEF788
:104CD000D6FC01230022009339000023200027F096
:104CE000B1FC2368AEE601230022009339000023C3
:104CF000200027F0A7FC2368C1E630219847FFF782
:104D000060F830219847FFF7A8F9002B15D1092A40
:104D100013D9002B01D0FEF7F7FB632A01D8FFF768
:104D2000A2FAFA21890091420CD85A49914201D243
:104D3000FEF7EAFB0125FEF70CFC5B460125093373
:104D4000FEF738FC01250235FEF704FC0F2276E65B
:104D50000F2291E650481CF009FD5F4602230A37F6
:104D6000984685E7092E25D9632E15D9FA239B008D
:104D70009E420CD3474B9E4201D9FFF742F80125D2
:104D80000335FFF763F85E4602270A3655E701252B
:104D900002350135FEF7DEFB0125049B02355B1968
:104DA000002F01D0FEF7D8FB632E01D8FFF75EFA83
:104DB000FEF7D2FB030002250A33FEF7FBFB092DA9
:104DC0002BD9632D00D862E6FA239B009D421DD3A8
:104DD000304B9D4201D9FFF743FB01239A46FFF771
:104DE00064FB4546FEF74BFC092D23D9632D00D803
:104DF0005EE6FA239B009D4215D3264B9D4201D9C6
:104E0000FFF7ABFB01239A46FFF7CBFB01239A4642
:104E100002239C46E244FFF74BFB5B460122093329
:104E20009246FFF773FB01239A4602239C46E24415
:104E3000FFF7BAFB5B46012209339246FFF7E2FB1C
:104E4000029E039FFEF786FB029E039FA5E70135A6
:104E5000029E039FFEF77EFB0235029E039FFEF734
:104E600079FB0235029E039F93E75546A246DCE795
:104E70005546A246CCE75546A246FFF719FB5546D4
:104E8000A246FFF791FBC0465CC40410ED0300107E
:104E900054C904100F27000040C20410F0B5DE46CC
:104EA000454657464E46E0B55C4C1F00A544A8ABAE
:104EB0001B78050099460300083303600023436014
:104EC000037214208846934604F0F6FF01238360A2
:104ED000534B40220360534B0021C36002234360C5
:104EE000030005610C330490040005A8039304F04B
:104EF000D7FF3AF0DDFE43681590002B00D18AE021
:104F00001A7869460C264C238919CA540368002B69
:104F100000D17EE01B780C2168464D224018835456
:104F20005A20B4320E00FF320021684404F0B8FF6A
:104F300068463D4B8119CF5499AB9A469423811909
:104F400050469B00C85080213A00890097A827F05E
:104F500055FB69469A238A19A9999B00D150636829
:104F6000013B6360002B3AD05B46002B47DB0023FC
:104F700001935B460122009341464B4603A8FDF78F
:104F8000A7FF942369460C229B008918C8585045F6
:104F900006D0694608338A18D158013104F09CFFC5
:104FA000049C002C11D06368013B6360002B0CD182
:104FB000236820009B689847A368013BA360002BEF
:104FC00003D123682000DB68984728009F239B00BB
:104FD0009D44F0BCBB46B246A946A046F0BD23683E
:104FE00020009B689847A368013BA360002BBBD1BE
:104FF00023682000DB6898475B46002BB7DA002364
:1050000000220193009341464B4603A8FDF760FF41
:10501000B7E700237FE7002273E7C04684FDFFFF68
:1050200020C6041008C604104E020000002301220E
:1050300000B589B00100019300935242203302A8C9
:10504000FFF72CFF0299064805F004FA029804AB1A
:10505000984203D00499013104F03EFF09B000BD2D
:10506000F4C40410F0B5DE4657464E464546E0B55A
:10507000D04CA54405F0FAF9192000F051FFD023D7
:1050800080221B0692045A6261A80DF0EDF8DBA89D
:105090000EF0D8FE27AB9B4618000FF03DFB48A84A
:1050A0000FF066FC61AB2393DBAB24935B46259347
:1050B00048AB269301F08CFBBF4805F073F8BF4F57
:1050C000BF4E23AC25682B6828001B689847696889
:1050D000002801D100F0E2FC300005F0BBF90434F7
:1050E000A345EFD1B74805F05DF80023039304937F
:1050F000029301F06DFBB44B9B69DB0600D4B8E171
:10510000029B002B00D0AAE1D02380221B06920430
:105110009A610123029A239C5A40200023AD0292F7
:105120000BF026FC002808D10435AB45E1D02C68F3
:1051300020000BF01DFC0028F6D021001AA80CF06E
:1051400099FC502206AB9B181B781EAA1000137006
:105150009046002100228160C260082B00D9DBE06C
:105160009A4A9B00D3589F461C9B1D9C069307940C
:105170008360C460FFAE1C363EAB3C93994600236F
:105180003CAF3B727B60142004F096FE01238360E9
:105190008F4B076103608F4B7060C36002234360D5
:1051A000030004000C33FFA83360402200212430A8
:1051B00004F076FE3AF07CFD4368B064002B00D129
:1051C00055E11A784C23F2540368002B00D14CE1CE
:1051D0001B784D22FFA8B354B4320021FF326A304D
:1051E00004F05EFE20227C4BCA20F25406AACB2398
:1051F0009446DB0063449A469423524680219B00E8
:10520000C000F25089002022604427F0F7F99A2369
:1052100000229B00F2506368013B6360002B0CD1BD
:10522000236820009B689847A368013BA360002B7C
:1052300003D123682000DB689847002330000193E6
:10524000009300224146FDF743FE94239B00F05853
:10525000504504D00833F158013104F03DFE746824
:10526000002C11D06368013B6360002B0CD12368D4
:1052700020009B689847A368013BA360002B03D1E3
:1052800023682000DB6898473968544805F0E2F845
:105290003868484503D0B968013104F01DFE434623
:1052A00020A81978FCF720F9502206AB9B18197832
:1052B0001CA8FCF719F937E71C9F202004F0FCFD1F
:1052C00079683A6804008B1A9946002303604360AA
:1052D0008360914200D1A4E34B46002B01DA00F039
:1052E000E3FD484604F0E8FD06004B46F018A060D8
:1052F00000202660666039687B6881465A1A8B42B6
:1053000000D083E33A697B69226163614E44666041
:105310003B7E237643469C60FFAE1C362CE758222A
:1053200006AB9B181B78FFAE03721C3624E71820CF
:105330001C9E04F0C1FD04000830206033687768CB
:105340009946002B00D166E3FFAB1C331F600F2F83
:1053500000D949E3012F01D000F00FFC4B461B7828
:105360002372FFAE1C3600236760C35543469C6022
:1053700002E718201C9E04F09FFD0023011D83609E
:1053800004000371C16001614361B0680028C1D0AD
:10539000FBF710FA03001A009B68002BFBD10300F7
:1053A000E2601A00DB68002BFBD173692261636144
:1053B000A060AFE774F9FFFFFCC4041028C5041017
:1053C00014C5041044C504100040034094C50410E3
:1053D00020C6041008C604104E020000F4C40410D5
:1053E0001C9B0C20994604F067FD4B4659681A68CF
:1053F000002307008C1A036043608360914200D150
:1054000011E3824B9C4201D900F04EFD200004F0D4
:1054100053FD06004B4634193E607E60BC601C683C
:105420005B6899469C420BD02B004D469946210063
:1054300030001034FAF7FCFF1036A542F7D14D4684
:1054400043467E60FFAE9F601C3695E6FFAE1C9B18
:105450001D9C1C36069307948360C4608CE6D023A1
:1054600080221B0692045A6153E60023B1E6002213
:10547000A8E6039B7F2B02DD0023039304931022F5
:10548000634910008B6918401A42FAD10B68049ADC
:10549000DBB2022A00D193E20FDC002A00D199E2AC
:1054A000012A01D000F0FCFC3A2B00D1FBE2039969
:1054B0007BAA53544B1C039322E6032A00D01FE619
:1054C0003E2B05D00399BBAA53544B1C039317E6FC
:1054D000B521039A06AB89005B1898544D4B7B9A13
:1054E0009A4226D0629B7BA8190003933BF0ECFA0A
:1054F000002800D101E3DC9B7BA8190003933BF05B
:10550000E3FA002800D1FFE25B467BA859683BF034
:10551000DBFA002800D1F9E2499B7BA8190003932C
:105520003BF0D2FA002800D1F2E200230393049367
:10553000E6E57C9A384B03929A42D3D100239B9A9A
:105540000393364B9A4207D0BB9A354B04929A424A
:1055500011D000230493D3E59C9A324B04929A42D3
:10556000F2D10023BB9A04932F4B03929A425DD051
:1055700000230393C4E5B62206AB92009B181B7868
:10558000002BE6D10493629B9BA8190003933BF088
:105590009BFA002801D100F042FCDC9B9BA819007B
:1055A00003933BF091FA002801D100F035FC5B46F3
:1055B0009BA859683BF088FA002801D100F029FC2B
:1055C000499B9BA8190003933BF07EFA002348A94E
:1055D0000393002800D093E53CAC20000BF0E0FFE3
:1055E000FFAB1C33994621001800FAF721FF48460B
:1055F000FFF71CFD4B46FFA819782430FBF774FF1A
:1056000021783EA8FBF770FFB2E7C046F0FFFF7FAE
:1056100000400340434F4E54524F4C0053454E53AD
:105620004F5054534F5253004C495354B62206AB7B
:1056300092009B181B78002B9AD1FFAA1C32136092
:10564000536003930233009391460023002100220C
:105650000AA8FCF7A5F900239A4623AF0EAD5346DE
:1056600000242B7000230021AB60EC6010A83E6882
:10567000FBF73AFF032318202B7004F01DFC73681E
:1056800006000836040098460660002B00D1C5E1EC
:1056900018003CF0DDF9FFAB1C33049018600F28B4
:1056A00000D9E6E1012800D0C0E143461B7823720F
:1056B00053466060335406ABAC601C7C002C00D0B9
:1056C000BFE1022306AA0C20137404F0F5FB0021AD
:1056D0000460446084600C902A00FBF775FE297812
:1056E00010A80437FBF700FFBB45B8D10026002304
:1056F0000024032730ADAB60EC60002132A82E708F
:10570000FBF7F2FE2F70182004F0D6FB04000830DF
:105710000422E949206004F0C9FB04232673636076
:10572000AC600023002400212B626C6238A82E613B
:105730002E76FBF7D9FE2F76182004F0BDFB07214B
:1057400004008846083020600722DC4904F0AEFBE4
:10575000414602236160E6732C623CAC29000222C0
:10576000AE623C95484663600093013BFCF718F934
:10577000002200234946A260E3603EAB18000E61A0
:10578000267000219A46FBF7AFFE2770182004F020
:1057900093FB070008300722C949386004F086FBF4
:1057A0004346002100227B6006AB1B7C21626262C3
:1057B000FE73A76026612376082B00D9DBE1C14A7E
:1057C0009B00D3589F460C9A0D9B0492059322622E
:1057D00063621EAF002302269846FFA8A362210041
:1057E00002223C607E60013300963430FCF7D8F82A
:1057F0004B46424649469A6208930232012300967C
:1058000012A80996FCF7CCF84B46FFA8197E3C304D
:10581000FBF76AFE4B46FFA819782430FBF764FEBD
:10582000217E44A8FBF760FE50462178FBF75CFE22
:10583000297E38A8FBF758FE297832A8FBF754FEDA
:105840003022402106AB9B181B7806AA5218137011
:105850000021002218911992082B09D89A4A9B001E
:10586000D3589F46149A159B049205931892199346
:1058700053462360002314206360237204F01CFB52
:1058800001238360914B4A460360914B5060C36093
:1058900002234360030004610C330500FFA813607A
:1058A00000214022243004F0FBFA3AF001FA4B4682
:1058B00098644368002B00D11DE11A784C234946B7
:1058C000CA540368002B00D113E11B784D224946CE
:1058D000FFA88B54B4320021FF326A3004F0E0FAA2
:1058E000494620227B4BCB26CA5406AB9C469423C8
:1058F000F6009B006644CA20CE508021C0002022C2
:105900008900604426F07AFE9A23002249469B00D3
:10591000CA506B68013B6B60002B09D12B682800D3
:105920009B689847AB68013BAB60002B00D130E12E
:105930000023002248460193009316A9FDF7C8FAF8
:1059400094234A469B00D058B04204D00833D15823
:10595000013104F0C1FA4B465D68002D0ED06B6832
:10596000013B6B60002B09D12B6828009B6898478E
:10597000AB68013BAB60002B00D105E121685648C4
:1059800004F068FD2068504503D0A168013104F09F
:10599000A3FA402206AB9B18197818A8FBF7A4FDC0
:1059A000302206AB9B18197814A8FBF79DFD06ABB7
:1059B000197C0CA8FBF798FD00230493FFF7A0FBCC
:1059C0003D2B00D18CE003999BAA53544B1C0393AD
:1059D000FFF796FB3C2B01D0FFF792FB00230393CC
:1059E00001330493FFF78CFB1E00190000222000F6
:1059F00026F0E6FD33682060A3603A00494604F0D3
:105A000055FAFFAB1C3320681F68ACE430009146A8
:105A100046F006FC76E4002F00D1A2E42F481BF0EC
:105A20008DFE002661E400240026F3E400282BD13B
:105A300053466060335406ABAC601C7C002C00D134
:105A40003FE6022C00D036E20C98436881688B4216
:105A500000D141E62A781A701099119A9960DA609B
:105A6000524600212A7000221033A960EA60436088
:105A700036E600224946200026F0A2FD0600FFABD4
:105A80001C331B682060A36030004146049A04F078
:105A90000DFAFFAB1C332668186809E6380004F0DD
:105AA000D9FCFFF71CFB039A7BAB985400230393AC
:105AB00002330493FFF724FB7CC504106CC504106B
:105AC00084C50410B8C50410DCC5041020C6041039
:105AD00008C604104E020000F4C4041058C204109A
