:020000041000EA
:1000000000B5324B212058609868022188439860DF
:10001000D860186158612E4B002199600221596106
:100020000121F02299502B49196001219960352056
:1000300000F044F80222904214D00621196600F024
:1000400034F8196E01211966002018661A6600F04E
:100050002CF8196E196E196E052000F02FF8012189
:100060000842F9D1002199601B49196000215960AB
:100070001A491B48016001219960EB211966A021F2
:10008000196600F012F800219960164914480160C1
:100090000121996001BC002800D000471248134993
:1000A000086003C880F30888084703B5996A0420EC
:1000B0000142FBD001200142F8D103BD02B5186610
:1000C0001866FFF7F2FF186E186E02BD00000240BE
:1000D000000000180000070000035F00212200005C
:1000E000F4000018222000A00001001008ED00E03C
:1000F00000000000000000000000000074B24E7A12
:1001000000200420F7010010C3010010C5010010F9
:10011000C1010010C1010010C1010010C101001097
:10012000C1010010C1010010C1010010C701001081
:10013000C1010010C1010010C9010010CB01001065
:10014000CD010010CD010010CD010010CD01001037
:10015000CD010010CD010010CD010010CD01001027
:10016000CD010010CD010010CD010010CD01001017
:10017000CD010010CD010010CD010010CD01001007
:10018000CD010010CD010010CD010010CD010010F7
:10019000CD010010CD010010CD010010CD010010E7
:1001A000CD010010CD010010CD010010CD010010D7
:1001B000CD010010CD010010CD010010CD010010C7
:1001C00000BE00BE00BE00BE00BE00BE00F04BF888
:1001D000103800BEF2EB8871A45B0610C85B0610F5
:1001E0003402001090A31AE700202149086006C8D5
:1001F00081F3088810471F48006800282FD10DA4FC
:100200000ECC002902D000F012F8F9E71A491B4A77
:10021000002000E001C19142FCD1194988471949E9
:1002200088471949884700BEFDE701C901C29A42C3
:10023000FBD37047C85B0610C0000020F81E0020EA
:10024000007A06100000042000000420007A061046
:1002500000100420001004200000000070470B482C
:100260000EF0FCFA0047EFF30580C0B270470000C3
:1002700008ED00E0000000D0F81E0020E03600206D
:10028000CDC80010C9A40010F5C9001057560000D1
:1002900006005250ABB36053B0AD0510060052508B
:1002A000861C0302C0AD0510060052505422A29DC8
:1002B000D0AD051005005250DE65F468007A0610D6
:1002C000F8B5C0460448054B10B5834203D0044B33
:1002D000002B00D0984710BDF81E0020F81E00200B
:1002E0000000000006480749091A8B10C90FC918F9
:1002F00010B5491003D0044B002B00D0984710BD17
:10030000F81E0020F81E00200000000010B5074C69
:100310002378002B09D1FFF7D5FF054B002B02D026
:10032000044800E000BF0123237010BD68230020B3
:100330000000000030880510054B10B5002B03D0DD
:100340000449054800E000BFFFF7CCFF10BDC046E0
:10035000000000006C230020308805100800704762
:100360007047C0467047C046030010B5DB680C30CC
:100370009B68984710BDC046074B0C3010B5040071
:10038000994206D0080037F04FFF431E9841404283
:100390000440200010BDC046F0A9051010B50400AF
:1003A00014210FF069FB200010BDC04610B50400F9
:1003B00008210FF061FB200010BDC04610B51421CC
:1003C0000FF05AFB10BDC04610B5002807D080239F
:1003D0001B05984205D200010FF03EFB10BD002026
:1003E000FCE72DF085FDC046091A0B4810B5091130
:1003F00081420DD00123002902D04B00994204D83C
:10040000180080231B05984200D210BD0248FCE76B
:1004100002482DF0A5FDC046FFFFFF0730880510FC
:1004200070B50400081AC010820012181301D21807
:100430001302D2181304D3185B001B189A10032B55
:1004400056DD2500200053009A1852011835A218D5
:100450000369002B14D01C78022C00D070BD9B685F
:100460001C685B681B1B202BF8D12378032BF5D16C
:10047000836A002B79D01C78022C03D02800EDE78A
:100480000300E8E79B681C685B681B1B202BF5D109
:100490002378032BF2D10300046C3033002C6CD092
:1004A0002678022E01D01800D8E7A4682668646870
:1004B000A41B202CF7D13478032CF4D10300846DD5
:1004C0004833002C5BD02678022EECD1A468266835
:1004D0006468A41B202CE6D13478032CE3D160306F
:1004E00060358242B4D11400264B881AC0104343B1
:1004F000022B15D0032B03D0012B23D00800ADE72E
:100500002369002B37D01A782000022AA6D19B68D5
:100510000CCB9B1A202BA1D11378032B9ED118341E
:100520002369002B25D01A782000022A96D19B68D7
:100530000CCB9B1A202B00D090E71378032B00D014
:100540008CE718342369002B11D01A782000022A76
:1005500000D083E79B680CCB9B1A202B00D07DE753
:100560001378032B00D079E7C8E72B0083E723003B
:10057000EBE72300D7E72300C5E71C0090E71C004A
:10058000A1E7C046ABAAAAAAF0B506000836040047
:100590000D0083B00660002924D008004DF056FD00
:1005A000070001900F280CD8012807D12B7823725F
:1005B000002360603354200003B0F0BD0028F7D062
:1005C00008E00022200001A938F03CFC0600019B55
:1005D0002060A36030003A0029000FF037FA01983C
:1005E0002668E5E701482DF0A3FCC0464C880510BD
:1005F000030030B581420CD0081A101819789C6895
:10060000DD6811709460D560103210339042F5D1DE
:1006100030BD1000FCE7C046406810B5054B44688B
:100620001B1B9A4202D838F0B5FE10BD02482DF0CF
:1006300097FCC046FFFFFF3F78880510F0B544687F
:100640000E00220067682368083283B07D1C934245
:1006500013D0A268954206D80022DE552368656053
:100660005A5503B0F0BD0123002200933900002346
:10067000200038F063FC2368EEE70F22EAE7C0466B
:10068000F8B54E464546DE46574683684468E0B5B1
:100690009C4606000D009C4213D00B7823708A689C
:1006A000CB68A260E360002300220B7000231034AB
:1006B0008A60CB604460F0BCBB46B246A946A04607
:1006C000F8BD03682C4A9946E31A9A461B119342D7
:1006D0004FD00127002B05D180231B059F4245D217
:1006E0003F0138E05F00BB4234D8002FF4D1102323
:1006F0009B4600230027984643462A7853441A70A5
:10070000A968EA689960DA60002300222B70002350
:10071000AA60EB604C450FD042464B4618781070EB
:100720009868D96810339060D16010329C42F5D13E
:100730005346103343449B464B46002B04D062463D
:100740004846D11A0FF098F9434633605B46B760CC
:100750007360B0E7094F38000FF07EF9B368804648
:100760009C46102343449B464744C5E7024F3F0144
:10077000F1E703482DF0F4FBFFFFFF07F0FFFF7FD9
:1007800030880510F0B54E46DE4645465746E0B582
:100790009FB006AB994608AB0693140000234A4667
:1007A0000D0049680390536013724846103138F0C9
:1007B00055FC4B46BA4E5B68F31A0F2B00D86BE121
:1007C0001022B849484638F0E5FD06CD484638F0D5
:1007D000E1FD4B465B68B34200D15DE10122484632
:1007E000B14938F0D7FD06000EAB0C93036808360C
:1007F0000500B34200D124E10C9383680E936B682B
:100800000D9300236B602B72E30F0493E317E4183E
:100810002E605C40092C00D827E1632C00D8D0E082
:10082000FA239B009C4200D233E1A04B9C4200D8AB
:100830002CE19F4B200098469E4B01269A469E4BEA
:100840009E4F9B4608E0454500D8D7E0554500D867
:10085000E8E05D4500D8EFE0994905000EF058F852
:1008600031000436BD42EED8CD1C12AB9A46049F2F
:1008700014AB2D225046B9190593129338F000FBA2
:10088000129A3B009446634404939C468D4B013D71
:100890009846864B65449B46200064210EF038F84C
:1008A00020004E0064210EF033F843469B195B781C
:1008B00027006B7043469B5D04002B70023D5F4533
:1008C000EAD8FA239B009F4200D38CE03034E4B294
:1008D000049B0EA91C7053460D9C5A680C9BA018D3
:1008E0008B4200D1ABE00E99884200D884E0129987
:1008F000059DA94200D1B6E05546AD68A84200D892
:1009000093E00CA838F046FD07001AAE189603686D
:100910000837040018ADBB4200D19EE018938368ED
:10092000AB6063686B600023636023726A685C4B32
:1009300027609B1A012B00D8AEE0022228006249F2
:1009400038F028FD0400039B2700180008301860C9
:1009500023680837BB4200D179E0039A1360A3688B
:1009600093601300626827605A60002318986360E0
:100970002372B04203D0A96801310FF07DF81298BC
:10098000059B984204D05346996801310FF074F8E2
:100990000C980EAB984203D00E9901310FF06CF811
:1009A000069808AB984204D04B46996801310FF085
:1009B00063F803981FB0F0BCBB46B246A946A046F8
:1009C000F0BD12AB9A46049D14AB2D225046A91CD3
:1009D0000593129338F054FA129A2B00944663440C
:1009E0000493384B9846434664001B195B78049A7D
:1009F000537043461C5D6BE7129982E7049D12AB6E
:100A0000AC469A46053114AB61442D2250460593FD
:100A1000129338F035FA129B9C4665440495049B6A
:100A2000350032E78E1D4D1D1FE700220021504684
:100A3000009438F0EBFB67E7CE1D8D1D15E70F2105
:100A400052E7102231000EA80FF000F8D7E610226E
:100A500039000EF0FBFF039B84E7102239003000C1
:100A60000EF0F4FF5DE70F2548E712AB9A46049DB0
:100A700014AB2D225046691C0593129338F000FAEE
:100A8000129A2B009446634404931FE7032504261F
:100A9000EBE602250326E8E60C482DF061FAC04695
:100AA000FFFFFF3F90880510A48805100F27000066
:100AB0003F420F007F969800FFE0F5059F860100FA
:100AC0001027000030A40510A888051078880510AC
:100AD000F0B5C6460026002700B50B7804008660F6
:100AE000C76082B00370082B07D8664A9B00D358B2
:100AF0009F468A68CB688260C360200002B080BCD9
:100B0000B846F0BD8F6820200EF0A6FF79683A68DD
:100B100005008B1A9846002303604360836091426E
:100B200000D1A7E04346002B00DAA8E040460EF0D3
:100B300093FF06004346F018A86000202E606E6008
:100B400039687B6880465A1A8B4200D085E03A6942
:100B50007B692A616B6146446E603B7E2B76A560A3
:100B6000CBE78A68CB688260C360C6E718208E68CE
:100B70000EF072FF0023011D836005000371C16048
:100B800001614361B0680028E9D000F081F80300FA
:100B90001A009B68002BFBD10300EA601A00DB6897
:100BA000002BFBD173692A616B61A860A560A4E783
:100BB0008B680C2098460EF04FFF434659681A6820
:100BC000002307008D1A03604360836091424ED07A
:100BD0002D4B9D4253D828000EF03EFF06004346A1
:100BE00075193E607E60BD601D685B6898469D42D9
:100BF00007D0290030001035FFF76AFF1036A845EE
:100C0000F7D17E60A76078E718208E680EF024FF89
:100C100005000830286037687668002F22D00196DA
:100C20000F2E0BD8012E27D13B782B7200236E603C
:100C30008355A56061E70B7A03725EE70022280006
:100C400001A938F0FFF8019B2860AB603200390041
:100C50000EF0FCFE019E2868E8E73000904657F051
:100C6000D7FD74E7002EE1D008482DF061F900258A
:100C70000026B4E700265DE7002ED7D0E6E72DF08A
:100C800037F9C046AC880510F0FFFF7F4C8805108F
:100C9000F0B54746CE4680B5040083B038200E003C
:100CA0000EF0DAFE070003002269183090466569ED
:100CB00010333861002A00D180E001950F2D5AD8F9
:100CC000012D00D081E013783B7600237D61210067
:100CD00043553800984628312830FFF7F9FE23782D
:100CE000E0683B7043467E60BB60FB60002803D039
:100CF0003900FFF7CDFFF860A568B946002D34D064
:100D000038200EF0A9FE04000300183020612A6983
:100D10006E6990461033002A4BD001960F2E39D8B9
:100D2000012E4FD113782376002366612900835565
:100D30002000984628312830FFF7CAFE2B78237010
:100D40004346A360E3604B469C606360E86800280C
:100D500008D02100FFF79CFFE060AD68002D04D0B3
:100D6000A146CDE7AD68002DFAD1380003B0C0BC74
:100D7000B946B046F0BD1800002201A938F062F86B
:100D8000019B3861BB612A0041460EF05FFE019D68
:100D900038699AE71800002201A938F053F8019B3E
:100DA0002061A361320041460EF050FE019E206991
:100DB000BAE7002EB8D007482DF0BAF8002D00D1C0
:100DC00083E7F8E7002EAFD0ECE7002D00D17CE7F9
:100DD000D9E7C0464C880510F8B54746CE4684682A
:100DE000031D984680B5002C33D00B6847469946C2
:100DF0004E6865692A00B54200D93200002A20D029
:100E00004946206957F07CFC00281AD01BDB2700DC
:100E1000A468002CEDD1B8451BD07C692200B442F7
:100E200015D8002A11D04846396957F069FC0028C6
:100E30000BD000280DDB38002830C0BCB946B046C6
:100E4000F8BDA81BE3D5E468E3E7301BF1E7320007
:100E5000E7E701482DF09CF8D0880510D0B50400D4
:100E6000082909D8214B89005B589F46002200239E
:100E7000026043602000D0BD00232360FAE72020F9
:100E80000EF0EAFD0026002300270360066147619B
:100E90004360836003762060ECE700220023026059
:100EA0004360E7E718200EF0D7FD0023021D037111
:100EB0008360C260026143612060DBE70C200EF0BA
:100EC000CBFD00230360436083602060D2E71820DD
:100ED0000EF0C2FD03000833036000234360037279
:100EE0002060C7E700230370C4E7C046D888051018
:100EF000F0B5DE46454657464E46E0B5C1B00993CB
:100F000012AB1093774B07900592089112AA11CB60
:100F100011C20D001988332411809B7808A89370A2
:100F20000B2311930023001903702A0010A916A89F
:100F3000FFF728FC179B0393039A6B4B9B1A0A2B12
:100F400000D844E30B22694916A838F023FA0500BB
:100F50001EAB1C93036808350400AB4200D104E3C8
:100F60001C9383681E9363681D9300236360237240
:100F7000059B25609B685C1C0393092C00D804E347
:100F8000632C00D84DE2FA239B009C4200D21CE364
:100F9000574B9C4200D816E3564B20009846564BC0
:100FA00001269946554B564F9A4608E0454500D8CC
:100FB0007CE24D4500D881E2554500D8B3E2514965
:100FC00005000DF0A5FC31000436BD42EED800222C
:100FD00031002EAB9B4630AB03932E93584637F02F
:100FE0004FFF2E9B484F9A465B465B68B8465E1E95
:100FF0003F4B013E99465644200064210DF088FC89
:1010000020004D0064210DF083FC43465B195B78A2
:101010002700737043465B5D04003370023E4F450A
:10102000EAD84346B8461F00FA239B00984500D3F0
:1010300004E23034E4B253461C70092300220093CA
:101040000021324B584638F0E1F8050034AB9A469F
:1010500036AB3493036808350400AB4200D17EE21E
:101060003493534682689A60534662685A600023FC
:1010700052466360237252681B4B25609B1A082BF3
:1010800000D8A4E209225046214938F083F905002E
:101090003CAB3A93036808350400AB4200D152E2FE
:1010A0003A9383683C9363683B93002363602372A5
:1010B000059B25605C68092C00D873E2632C00D87E
:1010C000C3E1FA239B009C4200D278E2084B9C4289
:1010D00000D876E2074B20009846074B0126994638
:1010E000074F21E0FC880510FFFFFF3F088905102E
:1010F0000F2700003F420F007F969800FFE0F505A4
:101100009F8601001027000030A4051014890510E7
:1011100020890510454500D8C0E14D4500D8E4E1DF
:10112000D64B9D4200D800E2D54905000DF0F0FBFA
:1011300031000436BD42EDD80022310028AB99467B
:101140002AAB04932893484637F09AFE289BCD4F4C
:1011500006934B465B68B8465E1E069B013E9C4666
:101160006644200064210DF0D3FB20004D00642173
:101170000DF0CEFB43465B195B7827007370434646
:101180005B5D04003370C04B023E9F42E9D843468A
:10119000B8461F00FA239B00984500D362E1303423
:1011A000E4B2069B3CA91C704B463B9C5A683A9B98
:1011B000A0188B4200D1BAE13C99884200D858E18E
:1011C0002899049DA94200D1DDE14D46AD68A842B1
:1011D00000D88CE13AA838F0DDF8060024AB229361
:1011E000984603680836040022ADB34200D1A4E15A
:1011F00022938368AB6063686B6000232660237270
:1012000063602898049B984204D04B469B68591C05
:101210000EF032FC3A983CAB984204D03C9B591CEF
:1012200006930EF029FC349836AB984204D053460E
:101230009B68591C0EF020FC2E98039B984204D00A
:101240005B469B68591C0EF017FC1D9C6A681C9B32
:101250001EA9A0188B4200D16DE11E99884200D8CA
:1012600009E12299414500D18BE1AE68B04200D836
:1012700026E11CA838F08EF80600049B0836289357
:1012800003680400B34200D129E128934B468268E9
:101290009A604B4662685A6000234A466360237234
:1012A00052687A4B26609B1A012B00D88FE10222EC
:1012B0004846774938F06EF80600039B08362E93AF
:1012C00003680400B34200D143E12E935B46826879
:1012D0009A605B46626803995A60002336AA2372BB
:1012E0006360266034925246536013725B465A68BC
:1012F0002E9B8B4200D11CE1594689688A4202D953
:101300000F2A00D8FAE00022584636A938F042F8F1
:1013100006003CAB3A93036808360400B34200D1A0
:10132000FBE03A9383683C9363683AA83B930023BD
:1013300023726360099B266006CB38F02BF8070008
:101340000CAE0A96036808370400BB4200D112E1D4
:101350000A9383680C9363680B93002327602372BE
:101360003A9863603CAB984203D03C9901310EF04F
:1013700083FB349836AB984204D0534699680131C8
:101380000EF07AFB2E98039B984204D05B46996836
:1013900001310EF071FB2898049B984204D04B4613
:1013A000996801310EF068FB2298404503D0A96886
:1013B00001310EF061FB1C981EAB984203D01E99C0
:1013C00001310EF059FB169818AB984203D01899CA
:1013D00001310EF051FB109812AB984203D01299D4
:1013E00001310EF049FB079D059B28001C68294B25
:1013F0000A992B60089B08306B6022F0C5FD264BD4
:101400000A982B602C61B04203D00C9901310EF088
:1014100033FB079841B0F0BCBB46B246A946A04694
:10142000F0BD2EAB9B46002230AB02215846039301
:101430002E9337F025FD2E9B124F9A46524664009C
:101440003B195B783C5D5370F5E528AB994600226B
:101450002AAB022148460493289337F011FD289BBC
:10146000084F069364003B195B78069A3C5D537005
:1014700097E62899AEE62299FBE6C046FFE0F5051F
:101480001027000030A405100F270000FFFFFF3FCA
:101490002C890510E09F0510F49F051028AB994694
:1014A0002AAB00220493289305314CE62EAB9B46D1
:1014B00030AB002203932E9305318FE58E1D86E518
:1014C000009400220021280037F0A0FE0600049BB3
:1014D0000836289303680400B34200D0D5E61022F2
:1014E000310004980EF0B2FAD3E68E1D24E60022F5
:1014F00000214846009437F089FE6EE600920021F4
:101500000022504637F082FE06003CAB3A93036857
:1015100008360400B34200D003E7102231003CA893
:101520000EF094FA00E7CE1D51E5CE1D04E60F2122
:1015300043E60F21E2E60F2190E6102231004046FB
:101540000EF084FA57E6102229003CA80EF07EFA2D
:10155000A9E51022310003980EF078FAB9E61022BE
:10156000290036A80EF072FA7EE5102229001EA886
:101570000EF06CFAF7E41022390030000EF066FA33
:10158000E9E60F2672E60F2521E62EAB9B460022E8
:1015900030AB0121584603932E9337F071FC2E9BFC
:1015A0009A4646E528AB994600222AAB01214846D7
:1015B0000493289337F064FC289B0693EFE50326F9
:1015C000BAE50426B8E5042601E50326FFE4014850
:1015D0002CF0C6FC78880510F8B5CE464746802327
:1015E00004000D0080B51B05994236D2A36800683F
:1015F000191A0B119D4203D8C0BCB946B046F8BDBC
:1016000063689C461B1A9846002D23D02D012800A4
:101610000EF022FA636881469C462068A368191A76
:101620004A460300604509D01E7816709E68DF6840
:1016300010339660D76010326345F5D1002801D091
:101640000EF01AFA4B46236043464D444B44636008
:10165000A560D1E700239946E2E701482CF080FC21
:1016600030890510F0B5DE4657464E464546E0B592
:1016700093B00490002801D100F02DFD049BDB689D
:101680000193002B01D100F003FD019BDB68029365
:10169000002B01D100F0D9FC029BDB680393002BE7
:1016A00000D16FE3039BDB689B46002B00D11EE358
:1016B0005B46DB689946002B4DD05B46CB460693D4
:1016C0005B46DB689A46002B00D157E15B46D34668
:1016D00007935B46DB689A46002B00D18BE35B46A1
:1016E000D34608935B46DE68002E01D100F00FFD63
:1016F000F068FFF7B7FFB36805932823F75C7B1EFC
:10170000012B79D9032F01D000F030FE336B1A0082
:1017100018680832904204D0996801310EF0ACF993
:10172000336B182118000EF0A7F933003069183315
:10173000984203D0B369591C0EF09EF9382130004D
:101740000EF09AF9059B002B01D100F0E0FC059EFC
:10175000CEE7069B9B465B469B685A46059328232B
:10176000D75C7B1E012B00D818E2032F00D1F2E2D8
:1017700024D9082F0DD1136B1868002805D099685B
:10178000091A0EF079F95B461B6B202118000EF048
:1017900073F95B4618691833984204D05B469B691D
:1017A000591C0EF069F9382158460EF065F9059B71
:1017B000002B00D19BE2059B9B4679E7022FE8D1E5
:1017C0005B461D6B2C686E68B44208D020002178FF
:1017D0000830103400F0E2FDA642F7D12E68002E4A
:1017E00004D0A9683000891B0EF046F95B460C2135
:1017F000186B0EF041F9CCE7002300240C930A93F8
:101800000B94336B022F00D18DE259690AA8FFF7C0
:10181000E3FE356BEC680435AC420AD021000AA81F
:101820002831FEF72DFF200021F0D8F90400854271
:10183000F4D110AB09930B980A9BB0460EAC8342CF
:1018400009D14AE001295AD0099800F0A7FD0B9868
:101850000A9B834240D00300103B1A78083822705C
:1018600001684268A160E260002200211A70002233
:101870009960DA600B9300F091FD21780229E1D1A3
:10188000A668736835689A465B1B1A11002B0CDD3D
:10189000160029000AA8013EFEF7F2FE1035002EC0
:1018A000F7D1A668736835689A46554545D0230038
:1018B0002C009946200021780830103400F06EFD8D
:1018C0005445F7D14C4609982178756000F066FDC3
:1018D0000B980A9B8342BED14646002804D00C9B3D
:1018E000191A09930EF0C8F8012F28D1336B9868A4
:1018F000FFF7B8FE1821306B0EF0BEF815E7A568AB
:10190000EE682B1D99469E420ED01D0031000AA89C
:101910002831FEF7B5FE300021F060F9060085425F
:10192000F4D1A5682B1D9946A868FFF79BFE0023FC
:101930004A46AB60EA602A616B61217884E7022F36
:1019400000D0F2E6376B3D687C68A54208D02800DD
:1019500029780830103500F021FDAC42F7D13C6801
:10196000002C04D0B9682000091B0EF085F80C216A
:10197000306B0EF081F8D8E6079B9B465B469B6870
:101980005A4605932823D75C7B1E012B27D9032FAA
:1019900000D0A7E3136B1A0018680832904205D0F4
:1019A000996801310EF068F85B461B6B182118002E
:1019B0000EF062F85B4618691833984204D05B4613
:1019C0009B69591C0EF058F8382158460EF054F80F
:1019D000059B002B00D1BCE6059B9B4670E60023CF
:1019E00000240AAD0A930B94AB60136B022F7ED0D8
:1019F00059692800FFF7F0FD5B461B6BDC681E1D74
:101A0000B4420AD0210028002831FEF739FE200018
:101A100021F0E4F804008642F4D110AB07930B9850
:101A20000A9B0EAC83424FD0B8462F0009E0012933
:101A300000D193E0079800F0B1FC0B980A9B834219
:101A400040D00300103B1A780838227001684268C1
:101A5000A160E260002200211A7000229960DA6021
:101A60007B6000F09BFC21780229E0D1A5686B68BF
:101A70002E689A469B1B1A11002B0CDD15003100B5
:101A80003800013DFEF7FCFD1036002DF7D1A568AA
:101A90006B682E689A4656457ED0230034009946DE
:101AA000200021780830103400F078FC5445F7D13C
:101AB0004C46079821786E6000F070FC0B980A9BEA
:101AC0008342BED13D004746002803D0A968091AC9
:101AD0000DF0D2FF012F22D15B461B6B9868FFF7F8
:101AE000C1FD5B461821186B0DF0C6FF62E759680F
:101AF0001B682800C91A0911FFF76EFD5B461B6BB6
:101B00001C685B681B1B1E11002B86DD2100280052
:101B1000013EFEF7B5FD1034002EF7D17DE7022F10
:101B200000D047E75B461D6B2C686E68B44208D056
:101B3000200021780830103400F030FCA642F7D1A4
:101B40002E68002E04D0A9683000891B0DF094FF88
:101B50005B460C21186B0DF08FFF2BE7A668F5682C
:101B6000331D99469D420ED01E00290038002831B1
:101B7000FEF786FD280021F031F805008642F4D1F9
:101B8000A668331D9946B068FFF76CFD00234A46EE
:101B9000B360F2603261736121784BE70023002467
:101BA0000AAD0A930B94AB60136B022F00D107E1CF
:101BB00059692800FFF710FD5B461E6BF468043678
:101BC000B4420AD0210028002831FEF759FD200038
:101BD00021F004F804008642F4D110AB06930B9870
:101BE0000A9B0EAC83424ED0B8462F0008E0012974
:101BF0005DD0069800F0D2FB0B980A9B834240D040
:101C00000300103B1A780838227001684268A1600E
:101C1000E260002200211A7000229960DA607B6085
:101C200000F0BCFB21780229E1D1A5686B682E6821
:101C30009A469B1B1A11002B0CDD15003100380051
:101C4000013DFEF71DFD1036002DF7D1A5686B682C
:101C50002E689A46B24548D02300340099462000A9
:101C600021780830103400F099FBA245F7D14C469A
:101C7000069821786E6000F091FB0B980A9B8342D6
:101C8000BED13D004746002803D0A968091A0DF0CF
:101C9000F3FE012F00D091E55B461B6B9868FFF7C0
:101CA000E1FC5B461821186B0DF0E6FE71E5A668B5
:101CB000F568331D99469D420ED01E00290038005C
:101CC0002831FEF7DDFC280020F088FF0500864261
:101CD000F4D1A668331D9946B068FFF7C3FC002312
:101CE0004A46B360F26032617361217881E728234C
:101CF000039DE95C2B0030331800AC6800F04EFB0C
:101D00002B0028691833984236D0039DAB69591CC3
:101D100003930DF0B1FE382128000DF0ADFE002C2C
:101D200030D00394BEE459681B680AA8C91A091187
:101D3000FFF752FC336B1C685B681B1B1D11002BEB
:101D400000DC76E521000AA8013DFEF799FC10347D
:101D5000002DF7D16DE5136B1A0018680832904218
:101D600005D0996801310DF087FE5B461B6B182189
:101D700018000DF081FE0CE5382103980DF07CFE73
:101D8000002CCED12823029DE95C2B0030331800B3
:101D9000AC6800F003FB2B0028691833984200D18F
:101DA0004CE1029DAB69591C02930DF065FE382190
:101DB00028000DF061FE002C00D146E102946BE496
:101DC00059681B682800C91A0911FFF705FC5B4612
:101DD0001B6B1C685B681B1B1E11002B00DCFCE6E8
:101DE00021002800013EFEF74BFC1034002EF7D1F5
:101DF000F3E6089B9B465B469B685A46059328235F
:101E0000D75C7B1E012B27D9032F00D0E3E0136B97
:101E10001A0018680832904205D0996801310DF017
:101E20002BFE5B461B6B182118000DF025FE5B4650
:101E300018691833984204D05B469B69591C0DF011
:101E40001BFE382158460DF017FE059B002B00D1D4
:101E500092E5059B9B463CE4002300240AAD0A93CF
:101E60000B94AB60136B022F7DD059692800FFF7EC
:101E7000B3FB5B461E6BF4680436B4420AD0210003
:101E800028002831FEF7FCFB200020F0A7FE04000C
:101E90008642F4D110AB08930B980A9B0EAC834298
:101EA0004ED0B8462F0008E0012974D0089800F001
:101EB00075FA0B980A9B834240D00300103B1A78B6
:101EC0000838227001684268A160E26000220021A7
:101ED0001A7000229960DA607B6000F05FFA217866
:101EE0000229E1D1A5686B682E689A469B1B1A11DE
:101EF000002B0CDD150031003800013DFEF7C0FB62
:101F00001036002DF7D1A5686B682E689A465645A5
:101F10005FD0230034009946200021780830103427
:101F200000F03CFA5445F7D14C46089821786E6091
:101F300000F034FA0B980A9B8342BED13D0047461D
:101F4000002803D0A968091A0DF096FD012F56D17B
:101F50005B461B6B9868FFF785FB5B461821186B87
:101F60000DF08AFD63E759681B682800C91A09113A
:101F7000FFF732FB5B461B6B1C685B681B1B1E116B
:101F8000002B87DD21002800013EFEF779FB10348D
:101F9000002EF7D17EE7A668F568331D99469D426D
:101FA0000ED01E00290038002831FEF769FB2800FA
:101FB00020F014FE05008642F4D1A668331D994630
:101FC000B068FFF74FFB00234A46B360F26032610E
:101FD000736121786AE7032F11D9082F00D026E713
:101FE000136B1868002805D09968091A0DF044FD94
:101FF0005B461B6B202118000DF03EFD17E7022FFA
:1020000000D014E75B461D6B2C686E68B44208D0A4
:10201000200021780830103400F0C0F9A642F7D132
:102020002E68002E04D0A9683000891B0DF024FD15
:102030005B460C21186B0DF01FFDF8E63821029865
:102040000DF01AFD002C00D0B8E62823019DE95CB4
:102050002B0030331800AC6800F0A0F92B00286981
:10206000183398420ED0019DAB69591C01930DF0B5
:1020700003FD382128000DF0FFFC002C08D001944E
:10208000FFF703FB382101980DF0F6FC002CF6D188
:102090002823049DE95C2B0030331800AC6800F065
:1020A0007DF92B002869183398420ED0049DAB6946
:1020B000591C01930DF0E0FC382128000DF0DCFCE8
:1020C000002C08D00494FFF7D9FA382104980DF0B9
:1020D000D3FC002CF6D113B0F0BCBB46B246A946E7
:1020E000A046F0BD032F00D819E5082F00D061E409
:1020F000136B1868002805D09968091A0DF0BCFC0C
:102100005B461B6B202118000DF0B6FC52E45B46C9
:102110009B68282205935B469F5C7B1E012B29D977
:10212000032F00D0EEE05B461B6B1A0018680832E4
:10213000904205D0996801310DF09EFC5B461B6B07
:10214000182118000DF098FC5B4618691833984266
:1021500004D05B469B69591C0DF08EFC3821584613
:102160000DF08AFC059B002B00D142E6059B9B46A7
:10217000FFF7B8FA002300240AAD0A930B94AB6072
:102180005B461B6B022F00D183E059692800FFF7E3
:1021900023FA5B461E6BF4680436B4420AD0210071
:1021A00028002831FEF76CFA200020F017FD04000B
:1021B0008642F4D10A980B9B10AA0EAC0992834276
:1021C00054D0180008E001297BD0099800F0E6F807
:1021D0000B980A9B834249D002000838103A1178C4
:1021E000160002684368A260E360002321700022A9
:1021F000337000230021B260F3606E6000F0CEF80F
:1022000021780229DFD1A3681E6898465B689A4648
:102210009B1B1A119146002B10DD31002800FEF7A0
:102220002FFA01235B429C46E1444B461036002BBB
:10223000F3D1A36898461E685B689A4656455FD0FE
:10224000230034009946200021780830103400F033
:10225000A5F85445F7D143464C4609985E6021786D
:1022600000F09CF80B980A9B8342B5D1002803D05C
:10227000A968091A0DF000FC012F58D15B461B6BB1
:102280009868FFF7EFF95B461821186B0DF0F4FB27
:102290005AE759681B682800C91A0911FFF79CF909
:1022A0005B461B6B1C685B681B1B1E11002B81DDD2
:1022B00021002800013EFEF7E3F91034002EF7D18B
:1022C00078E7A668F3689846331D994698450ED07E
:1022D0004646310028002831FEF7D2F9300020F0C0
:1022E0007DFC06008145F4D1A668331D9946B0688F
:1022F000FFF7B8F900234A46B360F26032617361B8
:10230000217862E7032F12D9082F00D01CE75B4623
:102310001B6B1868002805D09968091A0DF0ACFBF2
:102320005B461B6B202118000DF0A6FB0CE7022F6B
:1023300000D009E75B461E6B35687468A54208D07B
:10234000280029780830103500F028F8AC42F7D181
:102350003468002C04D0B1682000091B0DF08CFB00
:102360005B460C21186B0DF087FBEDE6032F01D8BF
:10237000FFF7E5FA082F01D0FFF7D7F9336B18689C
:10238000002804D09968091A0DF076FB336B2021E0
:1023900018000DF071FBFFF7C8F9C046F0B55746BD
:1023A000DE464E464546E0B54B1E82460F0089B0DC
:1023B000012B48D9032935D016D908290DD1006839
:1023C0000368002B06D081681800C91A0DF054FB71
:1023D0005346186820210DF04FFB09B0F0BCBB46F6
:1023E000B246A946A046F0BD022FF6D153461E685C
:1023F00034687568AC4208D0200021780830103469
:10240000FFF7CCFFA542F7D13568002D04D0B168A5
:102410002800491B0DF030FB53460C2118680DF0C5
:102420002BFBDAE70068020003680832934206D00B
:102430008168180001310DF01FFB53461868182100
:102440000DF01AFBC9E7002300220092019300233C
:1024500002930368022900D19BE059696846FFF79F
:10246000BBF853461D68EC680435AC420AD0210025
:1024700068462831FEF704F9200020F0AFFB040085
:10248000A842F4D1019B009804AD984209D14AE0DA
:1024900001295CD006A8FFF781FF0098019B8342C9
:1024A00041D01A00083B103A117818005C681B688C
:1024B000AB60EC600023297000241370002300211E
:1024C0009360D4600192FFF769FF29780229DFD178
:1024D000AB681C689B465B6899461B1B1E11002B52
:1024E0000CDD21006846013EFEF7CAF81034002ECC
:1024F000F7D1AB689B461C685B68994626004C4543
:1025000045D03000317808301036FFF747FF4E4590
:10251000F7D15B4606A85C602978FFF73FFF00987B
:10252000019B8342BDD1002803D00299091A0DF006
:10253000A3FA012F00D057E753461B689868FFF7AE
:1025400091F85346182118680DF096FA45E7AB68E4
:102550009846DC68042343449946A3420DD02100E9
:1025600068462831FEF78CF8200020F037FB040085
:102570008145F4D1AB6898461C1D43469868FFF727
:1025800071F842460023D460936014615361297846
:1025900080E759681B686846C91A0911FFF71CF8DB
:1025A00053461B681C685B681B1B1D11002B00DC5D
:1025B00068E721006846013DFEF762F81034002DFF
:1025C000F7D15FE7F0B5DE4657464E464546E0B5E3
:1025D000B9B003924A6883468A46002A44D0002351
:1025E0009C46B84B00240025002600210027994670
:1025F000904653464A461B689B5DD05C002C3AD0FF
:102600003F22103424014C44245C1A40AD01154390
:10261000002C39D0012C46D0039A002A07D15A4603
:10262000D0194E22835453465B68013798460131D6
:1026300001364645DDD3002C00D053E1002F13D0E6
:102640005B4659461868A04A03684E315B6893425E
:1026500000D0CFE140689D4B42689B1A9F4200D951
:10266000A2E23A0036F096FE39B0F0BCBB46B24664
:10267000A946A046F0BDFF25C540103424014C44B6
:10268000245C1D40002CC5D1222D00D989E0072DE6
:1026900000D8B1E02A00083A1A2A00D9ACE08C49E7
:1026A00092008A5897469A22584692008258002AE9
:1026B00000D1FCE1531E012BBAD84B1E9941761A6A
:1026C000012A79D0674600240021B1E759464E22FD
:1026D0005C20C919885422217B1C5B440237995421
:1026E00080239B00DB1B0C2B14D953465B68BC4634
:1026F000984600219CE759464E225C20C91988540F
:1027000072217B1C5B449954802302379B00DB1BA6
:102710000C2BEAD85B46594618686B4A03684E3161
:102720005B68934265D14068684B42689B1A9F4240
:1027300000D939E23A0036F02DFE53465B6800219D
:102740009846002300279C4672E759464E225C209B
:10275000C919885466217B1C5B4402379954BFE732
:1027600059464E225C20C91988546E217B1C5B445B
:1027700002379954B4E759464E225C20C91988544F
:1027800074217B1C5B4402379954A9E759464E22B9
:102790005C20C919885462217B1C5B440237995420
:1027A0009EE75C2D6AD159464E227B1CC9195B44B9
:1027B0008D5402379D5493E7039B002B28D15B4631
:1027C0004E22EF21634499541A0030394F32117070
:1027D000BD22503367461A70802303379B00DB1BF2
:1027E0000C2B2ED953465B68BC469846002400212A
:1027F0001EE73A009847A0E71F2D3FD858464E30B5
:10280000C0192B000721334A0BF0B6FF063767E7E4
:102810005B464E225C21634499541A0019314F32B1
:1028200011701900662250310A704A708A70533351
:10283000023A67461A70802306379B00DB1B0C2B7D
:10284000D0D85B46594618681F4A03684E315B680A
:10285000934200D0CBE040681C4B42689B1A9F42D9
:1028600000D9A1E13A0036F095FD53465B6800249B
:102870009846002300219C460027D9E6039A002AA7
:102880001AD07E2D18D980235B029D42B6D3124AFE
:1028900012499446AB0A63448C465846AA05920DE9
:1028A000624492B24E30C01900920D210C4A9BB284
:1028B0000BF062FF0C3713E75A46D1194E2201374D
:1028C0008B540DE748A0051019060010FFFFFF3FCD
:1028D0006489051040890510C0D7FFFF00DCFFFFA9
:1028E000488905109A235A469B00D458012C00D1E0
:1028F00096E0022C00D180E0002C00D0B4E616A8AF
:102900002BF054FCB74B04ADAB64B823EC5004334C
:10291000EC5200220023B44E349235933692379312
:10292000B368F268049303920C3B1A680399A950A8
:102930006C601868002128182BF024FC33690021F2
:10294000AB600C3B186806AB9C467369604403603F
:1029500003932BF017FC7368B2690C3B1B680EA83D
:10296000EA50A24B03920493A14B2C61AB64A14BA0
:102970006C61AB60A04BAC61EB60EC612C626C6293
:102980001FF088F89D4B6C63EB601823EB6212AB71
:102990002B63382307A9EC5416A82BF0F3FB06AAE7
:1029A00094468022AB68D2010C3B1B6860466344AE
:1029B000D9680A43DA60302135F050FB0221036800
:1029C0000C3B1A68821891604A221B68C318D968A8
:1029D0009143423A0A43DA60534652461B685268B2
:1029E0009B18013B197835F01BFC49F0EBFA3A00D3
:1029F00098473AE73A00984736E659461068804AC1
:102A000003684E315B68934246D140687D4B426813
:102A10009B1A9C4500D9C7E0624636F0BBFC23E612
:102A200059461068764C03684E315B68A34230D13A
:102A30004068744B42689B1A9C4500D9B4E06246DA
:102A400036F0A8FC039B002B11D05B461868036886
:102A50005B68A34223D140686A4B42689B1A052BEE
:102A600000D8A1E00622684936F094FCFCE55B46FC
:102A7000186803685B68A34215D14068614B4268DF
:102A80009B1A022B00D88FE00322604936F082FCAB
:102A9000EAE562469847D5E762469847E4E50622AC
:102AA00059499847E0E5032258499847DCE516A8BC
:102AB000160098462BF07AFB4A4B04ACA364B8236B
:102AC000E6500433E65200220023474D34923593FA
:102AD00036923793AB68EA68049303920C3B1A680A
:102AE0000399A15066601868002120182BF04AFB5A
:102AF0002B690021A3600C3B186806AB9C466B69F0
:102B00006044036003932BF03DFB6B68AA690C3BA8
:102B10001B680392E250354B0EA81A00049314333D
:102B2000A360354B2832A264E36026616661A6612A
:102B3000E661266266621EF0ADFF304B0022E36064
:102B40001823E36212AB23633823666307A9E254B8
:102B500016A82BF017FBA36806AD0C3B1A68944629
:102B600080226544E968D2010A43EA607522AA5CC2
:102B7000002A1CD074223021A954196806AA8C4658
:102B80000221624491601A6806AB9C464A23624463
:102B9000D168604699430B0008210B43D36041463E
:102BA00035F03EFB49F00EFA19482BF0D9F9EE6FDB
:102BB000002E10D0337F002B07D1300021F056FEBD
:102BC0003368144A9B69934207D175230122EA5462
:102BD000A3680C3BCEE72BF09BF9202130009847EF
:102BE000F3E7C0461CCB0510C0D30510F4D3051085
:102BF0001CD4051008D40510B8D40510FCD205105B
:102C000019060010FFFFFF3F588905106089051065
:102C1000788805105D030010F0B5CE46474680B5B4
:102C200006000C0083B0002939D008239846804460
:102C3000080009295CD963296DD9350003270B35B4
:102C400064220023200000210BF0A4FE9146002303
:102C50006422200000210BF09DFE4B465A00324BAF
:102C6000D21851786B1E19701278AB1E1A70013B86
:102C70003030187030682D4A03685B68934230D159
:102C800040682B4B42689B1ABB424AD33A004146EC
:102C900036F080FB03B0C0BCB946B046F0BD00685A
:102CA000244A03681B6893421FD144682200666867
:102CB00023680832751C93422BD0A268954206D82F
:102CC00030229A550022236865605A55E2E70123B5
:102CD0000022009331000023200036F02FF92368F2
:102CE000EEE73A0041469847D4E730219847D1E7CC
:102CF000330001270933632911D8092CB7D90A49B0
:102D00006400641861785A1E11702278023B1A70B0
:102D1000B0E70F22D2E7330002270A33EDE71D00A8
:102D20008EE705482BF01CF968A305101906001062
:102D3000FFFFFF3F3D06001078880510F0B54E46B6
:102D40004546DE465746E0B51E00130085B0150027
:102D50000290334369D0030008330393002E00D15F
:102D6000B0E0654B28009946644B31009B46644BAC
:102D700001279A46A8460023624A05000C000BF082
:102D800009FE3B000437002CF5D1554500D8ADE0D5
:102D90004D4500D889E05D4500D88BE05A4A954200
:102DA000E9D84546DF1D039BDB19023B9946574B8B
:102DB000B8469B4628003100642200230BF0EAFD50
:102DC000924600236422280031000BF0E3FD5346B5
:102DD0005A004B465A4434000E0051782F00597067
:102DE000127805001A709A1E9146002CE2D1484ACA
:102DF0009742DFD8BA46FA2247469200924541D21E
:102E0000013B30351D70029B424A186803685B68BD
:102E1000934246D14068404B42689B1ABB4267D3FD
:102E20003A00039936F0B6FA16E000683B4A0368A8
:102E30001B68934241D144682200666823680832C7
:102E4000751C93423CD0A26895420CD830229A550A
:102E50000022236865605A5505B0F0BCBB46B246F7
:102E6000A946A046F0BD01230022009331000023B3
:102E7000200036F063F82368E8E7244A03000227BD
:102E800093460A336D005D4469785A1E11702A78A2
:102E9000023B1A70029B1F4A186803685B689342E2
:102EA000B8D03A0003999847D6E75F1D039B454683
:102EB000DB197AE745469F1D75E730219847CBE738
:102EC0000F22C1E7092A0BD9632AD6D9FA239B001E
:102ED0009A4209D30E4B9A4200D942E7042762E78F
:102EE0000300012709338BE703275CE745465AE7D0
:102EF0000B482BF035F8C0463F420F007F969800F4
:102F00009F86010010270000FFE0F505A0A2051034
:102F10000F27000019060010FFFFFF3F3D060010BD
:102F20007888051008239C46F0B54E464546DE4697
:102F3000574684446346E0B589B003600393002399
:102F4000037243600D6A4B6A040099469D4237D074
:102F500000239A46264B9B461CE05346052200213F
:102F600006A805930CF06CFD33005A46092105A80C
:102F70000BF002FC05A84BF069F81E4B61680200DB
:102F80005B1A984230D8200005A9013536F002FAC4
:102F9000A94515D02E781F2EDFD96368039A98466D
:102FA0005F1C23689A421DD0A268974210D84246FF
:102FB0009E545246236801356760DA55A945E9D128
:102FC000200009B0F0BCBB46B246A946A046F0BD01
:102FD00001230022009341460023200035F0AEFF7C
:102FE0002368E4E70F22E0E703482AF0B9FFC04670
:102FF000D0890510FFFFFF3F78880510F0B5DE4649
:10300000574645464E460400E0B50830A9B0029246
:103010000F000D228F4920601D000CF017FD0D23BD
:103020006360002363756968002900D0B6E002225E
:103030002000894936F0AEF93B690E2B00D11FE123
:10304000102B00D888E01EAB994618001C93834BC8
:103050000D229A461CAB0D269846229222AD3200D4
:1030600051460CF0F3FC229E1C9A43465E600023FE
:1030700093550B33002200930021794B404636F0E4
:10308000C5F80822934624AE2296036883440700BD
:103090005B4500D195E122938368AB607B6820009B
:1030A0006B605B463B6000233B727B606A682299E1
:1030B00036F070F92298B04203D0AB68591C0CF07E
:1030C000DBFC1C98484504D043469B68591C0CF017
:1030D000D3FC029B002B37D0102B00D9B7E09F0008
:1030E000604BF9584046FDF74FFA0B23002200933E
:1030F00000215D4B404636F089F808229246229620
:10310000036882440700534500D170E1229383682D
:10311000AB607B6820006B6053463B6000233B72D2
:103120007B606A68229936F035F92298B04203D064
:10313000A96801310CF0A0FC1C98484504D0434616
:10314000996801310CF098FC200029B0F0BCBB4616
:10315000B246A946A046F0BD424A9B009B589A46FB
:103160001CAB98461EAB99461C935346002B02D1CC
:103170003E482AF0DDFE50464AF068FF06002290E5
:103180000F2800D823E122AD00222900404635F067
:1031900059FE4346229A18609A6060E704AA924654
:1031A00006AA0492904652465046536013720E315E
:1031B00035F054FF53462E4E5B68F31A0D2B43D95E
:1031C0000E222C49504636F0E5F806CD504636F032
:1031D000E1F853465B68B34236D001225046264997
:1031E00036F0D8F80822814624AE229603684A4475
:1031F000934622AD934200D101E122938368AB60F4
:103200004B465B685A466B604B461A6000234A4641
:103210001372536020006A68229936F0BBF8229836
:10322000B04203D0A96801310CF026FC0498404557
:1032300004D05346996801310CF01EFC0C4B6268B7
:103240009B1A012B00D9F2E60C482AF089FE0349AB
:1032500048E7C046EC8905100C8A0510DC8905108A
:10326000208A051070AA05102C8A05104C880510BC
:10327000FFFFFF3FFC8905101C89051078880510A9
:10328000F96D0AA8FDF780F90B9B0393039A6D4B28
:103290009B1A0D2BD8D90E226B490AA836F07AF862
:1032A000060012AB10939A46036808360500B34235
:1032B00000D1AAE01093836812936B6839001193D0
:1032C00000232E606B602B7216A81831FFF72AFEC0
:1032D000119D179A109BA818534500D1A2E012998E
:1032E000884200D889E0169918AEB14200D1A7E013
:1032F000189EB04200D88EE010A836F04BF80600B9
:103300001CAB98461EAB1C93994603680836050013
:10331000B34200D188E01C93434682689A604346DA
:103320006A685A60002342466B602B725268454BB4
:103330002E609A4288D001224046444936F02AF84D
:103340000822934624AE229603688344070022ADE8
:103350005B456FD022938368AB607B6820006B6015
:103360005B463B6000233B727B606A68229936F0C3
:1033700011F82298B04203D0AB68591C0CF07CFBCA
:103380001C98484504D043469B68591C0CF074FBBC
:10339000169818AB984203D0189901310CF06CFBC9
:1033A0001098504503D0129901310CF065FB0A9832
:1033B0000CAB984200D18CE60C9901310CF05CFB0F
:1033C00087E65946300008320CF040FB66E6012ED5
:1033D00006D04A4622AD002E00D146E648463EE6DB
:1033E000534642461B7822AD13724A463DE651468B
:1033F000300008320CF02AFB8BE616997CE710228D
:10340000594630000CF022FBFAE6102231005046FB
:103410000CF01CFB51E700220021009516A835F0A6
:10342000F5FE6CE70F215BE71022310048460CF0F7
:103430000DFB74E75946300008320CF007FB8CE7AF
:103440000F2656E7FFFFFF3F108A0510B89D0510B5
:1034500070B505000E0082B000291DD0541A0194E9
:103460000F2C0BD80068012C1BD10B780370019C2A
:10347000286800236C60035502B070BD002201A9CA
:1034800035F0E0FC019B2860AB60220031000CF0BD
:10349000DDFA019C2868ECE7002A05D100240068C9
:1034A000E7E7002CE5D0F0E701482AF041FDC046EF
:1034B0004C880510D0B582680400111F0B6888B0D5
:1034C000002B13D04168521A03219210013A049242
:1034D00002AAD171816C0732002953D0E66C04A98D
:1034E0004030B047002810D0A268111FE369A160E6
:1034F000002B04D0013BE361012008B0D0BD1F23A5
:10350000E361A369043BA361F6E7210004A85831F5
:10351000FDF7DEFAA36802AA043B1B68127A197849
:103520001A7002AA9E68DF68117200960197069EC3
:10353000079F06A89E60DF60009A019B0692079392
:10354000FEF72CFFA368E269191FA160002A13D0BF
:10355000013AE26162688A42CED0083B1B681A7861
:10356000022AC9D19A6850680300103B1978536049
:103570000838FEF713FFBFE71F22E261A269043A91
:10358000A261E7E72AF086FDF0B557464E46DE46D3
:103590004546E0B5A3B00CAB0A93544B8C4603915F
:1035A00005000CA8160016CB16C00C2300240AAF89
:1035B0006246390010A87B603C75FDF7E3F816AB56
:1035C0009A4618AB9946169353465C601C72109B42
:1035D00012A9119A8B4200D17AE012998A4201D93C
:1035E0000F2A6ED90022494610A835F0D3FE0822D2
:1035F00093461CAB98461EAB1C930293036883440E
:1036000004005B4566D01C93434682689A6043463B
:10361000626840465A605B46236000236360237201
:1036200006CE35F0B7FE0822934606AE0496036830
:10363000834404005B4553D0049383680693636816
:1036400005935B46236000231C9863602372029BF2
:10365000984204D04346996801310CF00DFA16984F
:10366000484504D05346996801310CF005FA10988A
:1036700012AB984203D0129901310CF0FDF90A986F
:103680000CAB984203D0B96801310CF0F5F9280071
:10369000174B04992B60039B08306B6020F074FC7F
:1036A000144B04982B60B04203D0069901310CF002
:1036B000E3F9280023B0F0BCBB46B246A946A046B9
:1036C000F0BD009200210022504635F09FFD8EE7AC
:1036D0000F2183E75946029808320CF0B7F996E7B4
:1036E0005946300008320CF0B1F9A8E7388A0510C5
:1036F000E09F051008A00510F0B5DE4657464E467F
:103700004546E0B58C6883B0824693460091002C14
:1037100042D01368576899462369666998463D0008
:10372000B74200D93500002D0DD02A004146484649
:1037300054F0E6FF002806D007DBE3680022002BE8
:1037400007D01C00E8E7B81BF7D5A3680122002BBF
:10375000F7D10194002A20D1002D14D02A00494627
:10376000404654F0CDFF00280DD00EDB53465246A4
:103770001C6000235360504603B0F0BCBB46B24609
:10378000A946A046F0BDF01BF0D5002352461360B9
:103790005346019A5A60EEE70C1D009BDB68A3427A
:1037A00014D020001FF046FA0369466998465B462C
:1037B0001B6899465B465F683D00B74202D801949A
:1037C0000400C9E7019435000400C5E75246002310
:1037D00054601360CFE7C046F0B54546DE46574615
:1037E0004E46E0B505008BB0382017000E000CF0F7
:1037F00033F910239C46182284446346944684443B
:10380000624602933B68026101921A680400904686
:103810005F68002A00D1F5E008970F2F4DD8012FDF
:1038200000D006E11378019A037600236761D3552F
:103830002822A35423632B1D37009A46B34200D19C
:1038400095E023699B46636998463369C1460493B2
:1038500073690393984500D999464B46002B3BD09A
:103860004A465846049954F04BFF00285FD143461E
:10387000039A9B1A5DD44A465946049854F040FF77
:1038800000282DD0002100282FDB20003030FEF74B
:1038900085FD2069019B834203D0A369591C0CF06C
:1038A000EBF8200038210CF0E7F838000BB0F0BC42
:1038B000BB46B246A946A046F0BD0022029808A920
:1038C00035F0C0FA089B2061A3613A0041460CF034
:1038D000BDF8089F2269A8E74346039A9B1A28D49B
:1038E0004246039B0021981ACFD52B69B3425CD086
:1038F00030001FF073F943694246059006939845DE
:1039000000D91A00002A00D189E0059B58461B699E
:103910001900079354F0F4FE002800D17FE000283E
:103920005ADAF368002B48D00120059F60E0002898
:10393000A1DAEB68B34218D030001FF07BF943697D
:10394000060099464246984566D8002A05D0594651
:10395000306954F0D5FE002802D14B464246981AF1
:10396000002839DAF368002B5DD0012040E06B6954
:10397000002B31D02F6963697E69984632009E42E0
:1039800047D8002A06D023693869190054F0B8FED8
:10399000002801D14346F01A00281DDA0120BA455B
:1039A00026D06369984623699B463B69C1460493C8
:1039B0007B690393984500D999464B46002B06D066
:1039C0004A465846049954F09BFE002802D14346CB
:1039D000039A981AC00F0BE02900029A08A8FFF773
:1039E0008BFE099F089B002F1FD00120002BD5D0F4
:1039F00053463A0021001FF039F96B69200001336A
:103A00006B6153E76246002F00D10EE70C482AF0A5
:103A10008FFA1A1EB7D1BDE71A1E98D19DE743460B
:103A2000069A981A7BE73700B8E728221F00A15CA6
:103A30002BE7019A002F00D1F7E6100045E7C046BA
:103A40004C880510F0B5DE4657464E464546E0B573
:103A5000804683B0382015001E000F000BF0FCFFDD
:103A600010239A4608339946082281444B469346D0
:103A700003612B68AB44040082445B4566D003615C
:103A8000AB6883616B68684663615B462B600023AB
:103A90002B726B6028253278337062550023B16831
:103AA000F2682163626300223900B260F36052461B
:103AB000FFF722FE009B019E9A46002E2FD03D1D4F
:103AC000002B15D001202B00320021001FF0CEF872
:103AD0007B69424601337B6143461C6001231371BD
:103AE000404603B0F0BCBB46B246A946A046F0BD76
:103AF000AE42E7D06369994673694A469A4699454A
:103B000000D91A00002A05D03169206954F0F8FD67
:103B1000002802D14B465246981AC00FD3E7200026
:103B2000615D3030FEF73AFC2069814503D0A3691E
:103B3000591C0BF0A1FF382120000BF09DFF4346DC
:103B400052461A60002342461371C9E75946484657
:103B500008320BF07BFF95E7F0B545464E46DE4652
:103B60005746E0B589B00023019200228260C3600D
:103B7000302398460C00002588448146009105704A
:103B800041462000FCF74CFC80453FD101234A46CA
:103B9000182013700BF060FF031DC36003614B46D8
:103BA00005718560456100260027986004AD13E02B
:103BB0002800FCF78DFFAB681A6849461300896836
:103BC0009268103302A8FFF73DFF1834297806A841
:103BD000FEF7E4FBA04512D021690029E8D1237843
:103BE000E2682B70A368EA60A660E760AB602170B2
:103BF000E2E753465A465A604B4652469A6009B02D
:103C0000F0BCBB46B246A946A046F0BD02234A46D8
:103C10000C2013700BF020FF824605604560856024
:103C200020200BF019FF5346186020239B46834445
:103C300053465A460500002600279A6006E02800F1
:103C4000FCF746FF18341035A045D2D02169002971
:103C5000F5D1237821702B70A268E368A660E76035
:103C6000AA60EB60EEE7C046F0B557464E46DE462A
:103C70004546E0B587B00293836881469C46036958
:103C80008A460491059201929C4500D171E0C36877
:103C9000591C9B461F231C008846CA1714404444E5
:103CA000D20E039164118918A4000B4064449B1A3E
:103CB0005CD462465146551A5A460199ED00521A93
:103CC000AD1867465E468846002D14DD002E33D0C1
:103CD0000121013EB140002B34D00122013B9A402A
:103CE0003868084220D02168013D0A432260002D37
:103CF000ECD1434601930123019A9340029A002A92
:103D000025D1524612689A431300524613605B460F
:103D10001F2B24D04B46039ADA6007B0F0BCBB4699
:103D2000B246A946A046F0BD2168013D91432160FD
:103D3000002DDED0002ECBD180211F26043F0906A6
:103D4000002BCAD180221F23043C1206C8E752462A
:103D500012681343524613605B461F2BDAD10023CF
:103D60004A46D360634604339360D6E72033043C6D
:103D70009FE762460368D31AC268DB009446604A34
:103D80006344934200D1B7E00122002B00D0A2E0AF
:103D90005B4B9A4200D91A001F3252099300180057
:103DA00003930BF059FE4B461E68534683469C1BFB
:103DB000B24503D02200310054F02AFD22000198C0
:103DC0005A44011E00DC92E055460023012780463C
:103DD0000DE01468204310601F2B13D0581C9C1C4E
:103DE0003B00834001399C460300002913D0380072
:103DF00098402C680442ECD1146884432000106081
:103E00001F2BEBD1012301399C46012400230435EB
:103E100004320029EBD14146150001911F2B01D13D
:103E20000024151D029B002B5DD0634611680B43D7
:103E300013604B4652469B6801989A1A4B46DB68C2
:103E4000D2001B1AD218002A28DDB446012156469A
:103E50000CE047462B681F432F601F2814D0013009
:103E60001F2C15D0013A0134002A16D00F000B0088
:103E7000A7408340B84637681F42EAD143462F68BF
:103E80009F432F601F28EAD1002004361F2CE9D160
:103E9000013A00240435002AE8D16646002E0DD0F0
:103EA0004B461B693000991B0BF0E6FD00234A4688
:103EB0009360D3604B46083303CB03C24A46039B4F
:103EC0005B4413614B465A461A604A46002395608C
:103ED0005360D46021E75A00934200D858E7094B59
:103EE000180003935DE7614613688B43A0E7012345
:103EF00015009C46012495E703482AF031F8C04696
:103F0000E0FFFF7FFCFFFF0F488A051070B5836854
:103F1000026982B0934216D0C4681F2C0ED0621C76
:103F2000C2600122A240002904D11968914319609E
:103F300002B070BD19680A431A60F9E70022C26036
:103F40001A1D8260EDE76A4603001400083360CB57
:103F500060C40B0052680099FFF786FEE8E7C04690
:103F6000F0B5DE4657464E4645460023E0B58FB0D5
:103F700006AF00223B70002388460400002108A8F9
:103F8000BA60FB60FEF70AFA032318203B700BF0BF
:103F900063FD43461B680500994643465E684B46F1
:103FA00008302860002B00D1B8E00A960F2E00D907
:103FB000A2E0012E00D0D8E01B782B7200236E60A7
:103FC000835599466268A36804AE9B1A9B100A93B6
:103FD00004233370A36CBD60002B00D1C9E0200026
:103FE0003B003200E56C0AA94030A847E36A626BE7
:103FF0000500934200D1A0E0216B1F2900D193E07E
:104000004A1C226301228A401968002D00D182E0F7
:104010000A431A60A368043B1B68002B5CD0210094
:104020000AA85831FCF754FDA368043B1B689B6841
:104030009D68019304330093002D00D18BE042462C
:1040400012689A46934642462300526899461400E5
:104050006E693200A64200D92200002A48D0594693
:10406000286954F04DFB002842D043DBAA46AD68D6
:10407000002DEDD14B46A1461C00009B53456BD053
:1040800053465D692A004D4553D8002A06D0534651
:104090005846196954F034FB002801D14B46581B8F
:1040A000002859DB2823524620205546D15C02AA1D
:1040B00012181278EA5402AB1B18504619702830B7
:1040C0002A6B6B6B0C9D0D9E8560C660A0630CA86F
:1040D0000C920D93FEF762F908A83978FEF75EF9A5
:1040E00001200FB0F0BCBB46B246A946A046F0BDC9
:1040F000301BBBD5ED68BBE7002228000AA934F0CD
:10410000A1FE0A9B2860AB60320049460BF09EFC82
:104110000A9E286852E791431960DDE7002E00D11E
:104120004CE7154829F004FF4A4622631A1DE26253
:1041300068E74A46002AAAD1B0E7230032002C33B0
:1041400003CB03C2200006CE2B002430FFF78CFDEA
:10415000002DC1D05EE79A4643465146019803AA16
:104160000393FFF739FB82469CE7002E00D125E739
:10417000CAE729F08FFFC0464C880510F0B51F2410
:1041800047460E00CE469846CB6980B55D1E23009B
:104190000700B069E91784460B405B19C90E5B1133
:1041A0006D189B002C408DB06344641A01D52034F7
:1041B000043B01211B68A140180008400B4207D1B5
:1041C0003860786038000DB0C0BCB946B046F0BD6C
:1041D000137804AC2370082B5CD87C4A9B00D3581E
:1041E0009F4600220023A260E3604346002B1CD1BF
:1041F0007268B3689B1A9B10089302ABDA1D052303
:104200001370B36C002B00D1DEE030002300F56C9E
:1042100008A94030A847002807D143463B607B608F
:10422000217806A8FEF7BAF8CCE7B36872689A421C
:104230006CD0043B1B68002B29D01A78022A00D1CD
:10424000B4E01F22356BF06A691ECB179C46134001
:104250005B185B119B0099466346DB0E9C468846C3
:10426000E04443461A4063468144D21A04D50423ED
:104270005B429C462032E144012393401A004B46A6
:104280001B681340002D08D03163002B66D13B60C2
:104290007B60C5E70023A360A7E71F2204383263D1
:1042A000F062F2E700220023A260E3609DE718209D
:1042B0000BF0D2FB05004649FCF766F9A56094E7D0
:1042C0000023237291E720200BF0C6FB002100227F
:1042D0000023016002614361416081600176A0605A
:1042E00083E718200BF0B8FB0023021D03718360E5
:1042F000C26002614361A06077E70C200BF0ACFB69
:104300000023036043608360A0606EE7237808AAFF
:104310001370069807999C460A900B910020002183
:104320000023A060E1606146237033680AA81D780D
:10433000197015709968DA68009101920A990B9AC0
:104340009960DA60009A019B29000A920B93FEF7AC
:1043500025F833687B6001233B7061E7237808AA66
:104360001370069807999C460A900B910020002133
:104370000023A060E16061462370B36B0AA81D783A
:10438000197015709968DA68009101920A990B9A70
:104390009960DA60009A019B29000A920B93FDF75D
:1043A000FDFF01233B70B36B7B6039E79868210008
:1043B000FCF766F90122B3683A70043B1B689B68FE
:1043C0005B68103B7B602BE729F064FE648A051074
:1043D000E4D20510F0B5DE4657464E4645468146C6
:1043E0000423E0B584684B448A469B4683B0002C86
:1043F00033D00B685F4698464E6865692A00B5421F
:1044000000D93200002A24D04146206954F078F9BE
:1044100000281ED01FDB2700A468002CEDD1BB456F
:104420001CD07C692200B44221D8002A05D0404625
:10443000396954F065F9002800D1301B00280DDBE4
:104440003800283003B0F0BCBB46B246A946A046AF
:10445000F0BDA81BDFD5E468DFE71F005346390035
:10446000484601AA0193FFF7B7F90700E8E73200D1
:10447000DBE7C046F0B51F2447460E00CE469846FF
:10448000CB6980B55D1E23000700B069E91784463B
:104490000B405B19C90E5B116D189B002C408DB051
:1044A0006344641A01D52034043B01211B68A140F8
:1044B000180008400B4207D13860786038000DB012
:1044C000C0BCB946B046F0BD00200021137804AC52
:1044D0000422A060E160237243462270002B1CD1AD
:1044E0007268B3689B1A9B10089302ABDA1D052310
:1044F0001370B36C002B00D1A7E030002300F56CE3
:1045000008A94030A847002807D143463B607B609C
:10451000217806A8FDF742FFD0E7B36872689A4297
:104520005DD0043B1B68002B29D01A78022A00D1E9
:104530007DE01F22356BF06A691ECB179C46134045
:104540005B185B119B0099466346DB0E9C468846D0
:10455000E04443461A4063468144D21A04D50423FA
:104560005B429C462032E144012393401A004B46B3
:104570001B681340002D05D03163002B07D13B6031
:104580007B60C5E71F2204383263F062F5E72378C9
:1045900008AA1370069807999C460A900B91002070
:1045A00000210023A060E16061462370B36B0AA87C
:1045B0001D78197015709968DA68009101920A994E
:1045C0000B9A9960DA60009A019B29000A920B937A
:1045D000FDF7E4FE01233B70B36B7B6098E7237823
:1045E00008AA1370069807999C460A900B91002020
:1045F00000210023A060E1606146237033680AA8AF
:104600001D78197015709968DA68009101920A99FD
:104610000B9A9960DA60009A019B29000A920B9329
:10462000FDF7BCFE33687B6001233B7070E7986840
:104630002100FCF725F80122B3683A70043B1B689F
:104640009B685B68103B7B6062E729F023FDC046F6
:10465000F8B5574645464E46DE460368E0B547681E
:104660009246344A9946FB1A050088469B109342AD
:104670005CD00126002B02D05E00B34250D84346E6
:104680004A469C1A002E1BD100239B4652465B468D
:1046900012681A51002C23DC434604345C44FF1A90
:1046A000002F30DC4B46E719002B35D15B466F609D
:1046B000AE602B60F0BCBB46B246A946A046F8BD32
:1046C00080239B059E422FD2B60030000BF0C4F928
:1046D000834652465B4612685E441A51002CDBDD6D
:1046E00022004946584654F093F8434604345C444B
:1046F000FF1A002F07DC4A46AB68E719991A4846AB
:104700000BF0BAF9D2E73A00414620000BF09EF9CF
:104710004B46E719002BC9D04A46AB68991AEEE719
:104720004A46054E8C1AD0E7024ECDE7034829F0E1
:1047300017FCC046FFFFFF1FFCFFFF7F30880510FE
:10474000F0B54E464546DE465746E0B544688368B8
:1047500005000E0083B09C4207D00B782370082B15
:1047600049D8784A9B00D3589F4603689846E31A75
:1047700099461A11744B9A4200D1E0E00123002AB5
:1047800007D180221205934200D3D4E01B019A4640
:1047900026E053009A4221D8002BF2D110239B46E9
:1047A000002300270193BA46CA4452463378137057
:1047B000082B00D981E0654A9B00D3589F46002210
:1047C0000023A260E360230010336B60200003B07D
:1047D000F0BCBB46B246A946A046F0BD5C4B9A462B
:1047E00050460BF039F982445346019310239B46FF
:1047F00007008344D7E70023A360E4E70C200BF015
:104800002BF90023036043608360A0606C68DAE7E3
:1048100018200BF021F906004E49FBF7B5FEA66003
:104820006C68D0E700232372CDE700220023A2604A
:10483000E360C8E720200BF00FF9002100220023DD
:10484000016002614361416081600176A0606C6833
:10485000B9E718200BF000F90023021D03718360F3
:10486000C26002614361A0606C68ACE70022002373
:1048700051468A60CB6044455FD04B464246FC18A7
:104880003B00117819709068D1689860D960103336
:104890001032A342F5D110239B46A3444346002B7C
:1048A00005D04246AB684046991A0BF0E5F85B46E6
:1048B0006B60019B2F60AB6088E7002352469360DA
:1048C000D9E70022002351468A60CB60D3E720203D
:1048D0000BF0C2F80023002200210261436153461D
:1048E00001604160816001769860C4E70023524610
:1048F0001372C0E718200BF0AFF816490600FBF75B
:1049000043FE53469E60B6E70C200BF0A5F800234B
:1049100003604360836053469860ACE718200BF057
:104920009BF800230371836043615346021DC260FC
:10493000026198609FE7044B28E73C00AEE7064819
:1049400029F00EFB888A0510FFFFFF07AC8A0510CF
:10495000F0FFFF7FE4D2051030880510D0B58368E2
:104960004268040086B09A4200D172E0043B1B68A2
:104970001A78022A08D00B7802AA1370082B65D87F
:1049800043499A008A5897469868FFF7D9FEA3686A
:10499000043B1B689B685868103806B0D0BD0020E7
:1049A000002104900591226904A81178137002ABCC
:1049B0009668D768197000960197049E059F9660C7
:1049C000D760009A019B04920593FDF7E7FC2069EC
:1049D000E3E70020002104900591E4E718200BF0A4
:1049E0003BF80023021D03718360436102ABC26088
:1049F00002611B780490D6E70C200BF02DF8002301
:104A000003604360836002AB1B780490CBE71820FF
:104A10000BF022F806001F49FBF7B6FD02AB1B782E
:104A20000496C0E7002202A90A72BCE720200BF01E
:104A300013F8002300260027036043608360037699
:104A400002AB066147611B780490ACE70022049238
:104A5000A9E7097802AB197004A8FCF7FFF92368ED
:104A600002AA127819781A7002AA9E68DF6811707B
:104A700000960197049E059F04A89E60DF60009A3F
:104A8000019B04920593FDF789FC206885E7C046E9
:104A9000D08A0510E4D20510F0B54E464546DE46F4
:104AA0005746E0B5446805008068894683B0844273
:104AB00012D000220023A260E3600B78043223723C
:104AC0002300103322706B60200003B0F0BCBB46A3
:104AD000B246A946A046F0BD2B682E4A9846E31A76
:104AE0009A461B11934252D00126002B05D18023F8
:104AF0001B059E4246D2360136E05E00B34232D8F4
:104B0000002EF4D110239B4600231E000193009336
:104B100053460022F11800238A60CB604B461B7875
:104B200004320A700B7244452FD00C003300424609
:104B30009668D76811789E60DF6019701033103264
:104B40009C42F5D110239B46A3444346002B03D03F
:104B5000C11A40460AF090FF009B2B605B466B60D9
:104B6000019BAB60B0E70C4E30000AF075FF02000D
:104B7000102394469B46664400900196A868160050
:104B8000E344C5E7034E3601EEE73400DDE70348B2
:104B900029F0E6F9FFFFFF07F0FFFF7F30880510DF
:104BA000D0B583684268040086B09A422ED0043B98
:104BB0001B681A78022A1FD0002200230492059352
:104BC0000B7802A90B72043203690A7019781A7003
:104BD00002AA9E68DF68117000960197049E059FE7
:104BE00004A89E60DF60009A019B04920593FDF784
:104BF000D5FB206906B0D0BD9868FFF74DFFA368CC
:104C0000043B1B689B6858681038F3E700220023B8
:104C1000049205930B7802A90B72043203680A70A0
:104C200019781A7002AA9E68DF68117000960197C1
:104C3000049E059F04A89E60DF60009A019B049279
:104C40000593FDF7ABFB2068D4E7C046F0B54E46B0
:104C5000DE4657464546E0B59DB0279B1892269AFA
:104C60001C0D1B038346894616001F0B002C1BD00E
:104C700080233000002239005B03801859413E43F5
:104C800000D08BE1012C01D100F099FDDA48DB491D
:104C900084461F0061188023A44401241600D84DC7
:104CA00001229B0364420EE0D64B9C4634003D003B
:104CB000A4197D410021012022002B00241A8D41DE
:104CC00012184B4161460139009401950D00089678
:104CD000099792185B412F0010001900013D002B2D
:104CE000F7DA009C019DB846089E099F424663463C
:104CF0009B1A202252420A900B919A1800D570E11B
:104D000021009140119122009A400E92B6197F41E4
:104D1000002FFBDA3D2243465242D21A13019B1860
:104D2000DB009B18D9005B189B019B18D9178903DE
:104D3000890BCB18D1178A1A9B14D20F9A18072304
:104D40003432FF32D1170B409B18AF4ADB1092462A
:104D50001B019A4453461C685B6830001A00089394
:104D6000002100230AF0D4FC220000230C901291B1
:104D7000380000210AF0CCFC220000231490169188
:104D80003000002100940AF0C3FC00250C00002331
:104D90000C9A002012196B41802400252406121958
:104DA0006B410025149C0D9012196B4100250C934A
:104DB0000023169A129C3800A4185D410021089A1D
:104DC0000AF0A6FC001969410C9B0D9C1B184C4174
:104DD000089E16931794320000230E9800210AF0C3
:104DE00097FC5546009A00230C90129111980021CF
:104DF0000AF08EFCAD683200AC460A9C0B9D002385
:104E00001490199120000021E0440AF081FC009ADE
:104E10000700002328001A9100210AF079FC009A6B
:104E20000600002320001B9100210AF071FC3C00C9
:104E30000A000025002312196B4180240025240656
:104E400012196B413400002512196B41089F1C0098
:104E50003A0000230B9800210AF05AFC012252422A
:104E6000D3178018594100231A9A564612184B41FD
:104E700000211B98002512184B41A4185D41F368CE
:104E8000189E5B423A003360119800230AF040FC00
:104E9000C243CB43002119982600121A8B410021EE
:104EA00012982F00121A8B410E98B6185F41009A83
:104EB0000023129413950AF02BFC00230A00002112
:104EC0000C98002512184B41802000210006121872
:104ED0004B410021149812184B4131001C003A003C
:104EE000091BAA41129C139D0E910F92169A179BB3
:104EF000A41A9D41402342465B429B1A00940195AF
:104F00000C93203B9A464FD40023002452460A9328
:104F10000B94013393400B9301230C9A93400A9313
:104F20005346002B51DB1398D8400A9C0B9D01225D
:104F30005242D317A4185D411299139A23002C00F2
:104F40000D00149315941D40304B22400895099292
:104F5000984267D82E4B984200D919E32D4B9842BE
:104F600000D9FDE22C4B984200D91DE32B4B98420F
:104F700000D925E32A4B984200D926E3FA239B0067
:104F8000984200D3A3E3632800D9B6E3092801D9E6
:104F900000F0C8FB01239846119347E0174B060029
:104FA0009C460F00A44481E620230C9A00219B1A02
:104FB00000220A910B920122DA4001230B920C9AF3
:104FC00093400A935346002BADDA202314009B1A1A
:104FD0001299139A1000984003000800E04018430B
:104FE000A3E720222100D21AD1400A0029009940CB
:104FF0001143119187E6C046CBFBFFFFCCFBFFFFBF
:10500000FFFF3F00CDFBFFFF00A50510FFC99A3B46
:10501000FFE0F5057F9698003F420F009F86010054
:105020000F270000CF4B98460A231193414609F001
:105030006FFC4B460D0049461B6830305A1C0A6015
:105040005A46D054119B5C1E5346002B00DA5DE299
:105050002B00524693401F002B000C9A93401E00D9
:10506000089A099BB6185F410F9B9F4200D8B1E296
:105070000A21404609F04CFC1990002C00D166E151
:105080000100280009F044FC4B460D0049461B680E
:1050900030305A1C0A605A46D054119B9C1E53460D
:1050A000002B00DA39E22B00524693401F002B0000
:1050B0000C9A93401E00089A099BB6185F410F9BFB
:1050C0009F4200D807E36421404609F021FC199073
:1050D000002C00D13BE10100280009F019FC4B46EF
:1050E0000D0049461B6830305A1C0A605A46D0549D
:1050F000119BDC1E5346002B00DA15E22B005246B2
:1051000093401F002B000C9A93401E00089A099BA5
:10511000B6185F410F9B9F4200D8E6E2FA21404655
:10512000890009F0F5FB1990002C00D10FE1010076
:10513000280009F0EDFB4B460D0049461B68303056
:105140005A1C0A605A46D054119B1C1F5346002B10
:1051500000DAF0E12B00524693401F002B000C9A1E
:1051600093401E00089A099BB6185F410F9B9F420F
:1051700000D8C7E240467C4909F0CAFB1990002CD0
:1051800000D1E4E00100280009F0C2FB4B460D000D
:1051900049461B6830305A1C0A605A46D054119B4D
:1051A0005C1F5346002B00DACCE12B0052469340A3
:1051B0001F002B000C9A93401E00089A099BB618FA
:1051C0005F410F9B9F4200D8A4E24046674909F027
:1051D0009FFB1990002C00D1B9E00100280009F0D4
:1051E00097FB4B460D0049461B6830305A1C0A603D
:1051F0005A46D054119B9C1F5346002B00DAA8E15D
:105200002B00524693401F002B000C9A93401E0027
:10521000089A099BB6185F410F9B9F4200D886E20F
:105220004046534909F074FB1990002C00D18EE0E0
:105230000100280009F06CFB4B460D0049461B6835
:1052400030305A1C0A605A46D054119BDC1F53461A
:10525000002B00DA89E12B00524693401F002B00FF
:105260000C9A93401E00089A099BB6185F410F9B49
:105270009F4200D863E240463E4909F049FB19903D
:10528000002C64D00100280009F042FB4B460D00C1
:1052900049461B6830305A1C0A605A46D05453465F
:1052A000119C083C002B00DA6BE12B005246934026
:1052B0001F002B000C9A93401E00089A099BB618F9
:1052C0005F410F9B9F4200D841E240462A4909F0C6
:1052D0001FFB1990002C3AD00100280009F018FBA0
:1052E0004B460D0049461B6830305A1C0A605A462E
:1052F000D0545346119C093C002B00DA4DE12B00A1
:10530000524693401F002B000C9A93401E00089AAF
:10531000099BB6185F410F9B9F4200D81FE2404691
:10532000104909F0F5FA8046002C10D04B464A4649
:105330001C680100631C1360280009F0E9FA5B4651
:10534000303018550F9A099B934200D80FE20E9EF9
:105350000F9F202000210C9B8C46C01A11900898AA
:10536000099937E000CA9A3B10270000A086010087
:1053700040420F008096980000E1F505099ADA4056
:105380005B4630321A550123BA009846B30F1A43D0
:10539000B30005920493049A059B92197B419218DD
:1053A0005B410E920F931F00009B16009C0F019B08
:1053B000C4449B0023430793009C019DA3000693D4
:1053C000069A079BA4185D4124196D41009401952C
:1053D000B94228D9830F8A001A43830003920293AB
:1053E000029A039B12184B4192185B410892099351
:1053F000149B159C1A002300099C089D234019004A
:105400004B461C682A40651C1D6053461000002B4B
:10541000B4DA119B099A089D9A4013000C9AD54062
:105420002A001A43ACE7B94201D1B042D2D80E9A51
:105430000F9B089009916146189E3768791A316070
:105440004946096800978C4609998D4200D89BE12E
:10545000089E099F10001900801BB9410B9E8E42C7
:1054600035D800D1A2E10A980B99121A8B410898FD
:1054700009996646121A8B41013EE0460F00B44678
:10548000060000920193029403950A9C0B9D300044
:10549000390036196F41029C039DBD421ED801D1CF
:1054A000B4421BD8029C039D22002B00121A8B4190
:1054B00030003900001BA941C4468B4200D878E077
:1054C00067465B465A46013FDB5D013BD3551DB045
:1054D000F0BCBB46B246A946A046F0BD60460A9A5B
:1054E0000B9B59466446095C58460139015510002A
:1054F000009C019D1900241A8D412900019D200066
:10550000AB42E4D838D000900191BEE720230C9A3A
:105510009B1A2A00DA4017009EE520230C9A9B1A5A
:105520002A00DA401700C2E520230C9A9B1A2A00B1
:10553000DA401700E6E520230C9A9B1A2A00DA408D
:1055400017000BE620230C9A9B1A2A00DA4017005A
:105550002FE620230C9A9B1A2A00DA40170053E604
:105560009A4B98460823119360E520230C9A9B1AC6
:105570002A00DA40170072E60A9C009B9C42C2D9BE
:10558000A5E720230C9A9B1A2A00DA40170090E620
:105590008F4B98460923119348E520230C9A9B1AB8
:1055A0002A00DA401700AEE68A4B9846072311938B
:1055B0003CE58B4200D08AE7824200D980E786E74B
:1055C000854B98460623119330E5844B9846052376
:1055D00011932BE50E9A0F9B9F4202D1964200D960
:1055E00046E5189B1A68944664441C605346029230
:1055F000002B5BDB414699400B0041460C988140F3
:105600000A004946096888460199B94200D8C4E0B1
:105610000E980F99801BB9418B4200D957E700D1F2
:10562000C9E00124801A994164424444A44602908E
:1056300003910098019904960597B6185F41B94205
:105640001CD801D1B04219D8049C059D009A019B39
:1056500012981399121BAB4114001D00169A179B48
:10566000121A8B4192197B419D422AD943465A46D0
:105670005946013BD25C013ACA5428E765465C466C
:105680006146645D5D46013C6C54029803990400D8
:105690000D00A41A9D41049405958B4200D916E78C
:1056A0000BD00498059902900391C2E7202140464F
:1056B0000C9BC91AC84003009FE702998A42F0D99F
:1056C00005E79D4200D002E79442CFD8FFE6984616
:1056D00004231193AAE40E9A0F9B9F4202D1964293
:1056E00000D9F0E4199B98467BE70E9A0F9B9F42E6
:1056F000F8D1964200D911E5F4E764239846613B5E
:10570000119393E40E9A0F9B9F42EBD1964200D9DE
:1057100030E5E7E70E9A0F9B9F42E3D1964200D90E
:1057200053E5DFE70A239846083B11937EE40E9A7F
:105730000F9B9F42D6D1964200D971E5D2E70E9ACF
:105740000F9B9F42CED1964200D994E5CAE70E9AAC
:105750000F9B9F42C6D1964200D9B6E5C2E70E9A8A
:105760000F9B9F42BED1964200D9D8E5BAE708996F
:10577000099A0E9B0F9CA24202D1994200D9E6E5FC
:105780000024089E099F2CE7089809998D4200D0B3
:105790009DE6844200D95BE699E600980199B942FA
:1057A00000D094E6B04200D932E790E60A9E8642E5
:1057B00000D858E68BE6824200D832E787E60849EF
:1057C00016008C461F00FFF771FAC04680969800BD
:1057D00000E1F50540420F00A086010010270000FF
:1057E000CDFBFFFFF0B557464546DE464E46E0B5D9
:1057F0001D000B7804008A468BB0092B2FD8B649C0
:105800009B00CB589F4653460122DF689E687D006F
:105810006D0830002900B14B524209F052FB0028BC
:1058200009D1012230002900AC4B524209F044FB5F
:10583000002800D1D7E32068A94A03685B68934237
:1058400001D000F03EFE4068A64B42689B1A032B35
:1058500001D801F08CF80422A34933F09BFD0BB072
:10586000F0BCBB46B246A946A046F0BD53469B6875
:1058700000685B69002B01D100F001FE0368002A7B
:1058800001D100F026FC5B68954EB34201D000F0D8
:10589000D1FF4068934B42689B1A012B01D801F05D
:1058A00066F80222914933F075FD149A159B9446CF
:1058B0006344994694239B00E0184168494501D20E
:1058C00001F009F853469B68DA685B699046012B42
:1058D0006BD0874B00279B462B003D009846170056
:1058E0009422206892000368A1585B68B34201D0FB
:1058F00000F02EFE40687B4B42689B1A994501D907
:1059000001F035F84A4633F045FD2068794A0368CE
:105910001B68934201D000F024FE2221406833F03E
:10592000E5FB3900200042461031FCF74BFE2068B1
:1059300003685B68B34201D000F00EFE4068694B1B
:1059400042689B1A022B01D801F011F80322594634
:1059500033F020FD4B4639000193149B2000009347
:10596000012243462831FFF73DFF206803685B684A
:10597000B34201D000F0E4FD40685A4B42689B1AE4
:10598000012B01D800F0F3FF02225B4933F002FD46
:1059900038001DF039F953469B6801355B690700F3
:1059A000013BAB429CD84546804694222068920039
:1059B0000368A1585B68B34201D000F033FF406830
:1059C000484B42689B1A994501D900F0D0FF4A46DE
:1059D00033F0E0FC2068474F03681B68BB4201D0EE
:1059E00000F01CFF43689A465B68524603930133FC
:1059F0009B4653461B680832934201D100F03CFF9E
:105A000052469268934501D900F0B4FE22220399D0
:105A10005A5453465A4659465A6000221B685A54F3
:105A2000414620002A001031FCF7CCFD20680368B5
:105A30005B68B34201D000F00CFF4068294B42681C
:105A40009B1A022B01D800F092FF0322284933F061
:105A5000A1FC4B4641460193149B20000093012278
:105A60002B002831FFF7BEFE206803681B68BB428D
:105A700001D000F0EAFE45686B682A0099460123D0
:105A80004B4498462B680832934201D100F0F1FE56
:105A9000AA68904501D900F062FE0A2249465A548C
:105AA0004346002241466B602B685A54942220687A
:105AB00092000368A1585B68B34201D000F0BFFEBA
:105AC0004068084B42689B1A159A9A4201D900F027
:105AD0004EFF33F05FFCBCE3748B0510FFFFEF7FDC
